:020000040800F2
:10000000D08A0020719F0008199200081B920008F6
:1000100000000000000000000000000000000000E0
:100020000000000000000000000000000D5100086A
:100030000000000000000000CF5000089F4C0008A6
:100040000312000800000000B71200080B1300089C
:10005000831800088718000871920008BB920008F6
:10006000000000008B180008B32700085F2B000871
:100070004B3100084B3900083F49000800000000E0
:10008000FB4B00081F9200081B6200083362000847
:10009000037700080B7B00089F8200087385000827
:1000A000578700088B9300080B9C000829920008D2
:1000B00069920008179C0008FDB5B2B03A98049107
:1000C00002A93B22885400200D9026A8401C3190A4
:1000D0000DE00498329A90470490002801D100F076
:1000E00027FF0D98401C0D903398401C3390339897
:1000F0000178002910D02529EBD100200790089025
:1001000009900A900B900C9000210224012013907A
:1001100008201290339D05E00D9800F00BFF0800B9
:10012000139901436D1C28782028F8D023280BD080
:100130002B2804D02D2804D0302808D00AE02143F1
:10014000F0E708000421ECE708000821E9E70800CF
:100150001021E6E72A280FD1349802681068121D92
:10016000349B1A600F90002804D542420F92080079
:10017000042101436D1C12E000200F90654A09E044
:100180000F9B934205DA9E00F3185B001818303875
:100190000F906D1C28780300303B0A2BF0D3287891
:1001A0002E2803D00020C0430E9027E06D1C287835
:1001B0002A2808D1349800680268001D349B186012
:1001C0000E926D1C1AE02D2802D12D226D1C00E02C
:1001D000002200200E900CE0002A09D10E9B4D4E0B
:1001E000B34205DA9E00F3185B00181830380E9001
:1001F0006D1C28780300303B0A2BEDD302A8018741
:100200002E78310041487844FF30C01C00F076FF62
:10021000002801D06D1C00E0002602A83A214654B7
:10022000405C682804D1287868280BD1622005E05A
:100230006C2807D128786C2804D1712002A93A22B1
:1002400088546D1C17A80690287869460870681CA9
:100250003390684602781000253833D01C3800D11E
:100260000EE2001F022800D80AE2133801D100F084
:1002700083FD093800D103E2801E01D100F019FE90
:10028000401E01D100F0C6FD401E022800D8F7E153
:10029000001F01D100F0BEFD401F00D149E1401E0A
:1002A00001D100F069FD401E00D1EBE0C01E10D06E
:1002B000801E01D100F060FDC01E01D100F05CFD88
:1002C00000F002FE252017A908701398079000F08F
:1002D00006FE349800680468001D3499086005948F
:1002E000002C00D0BAE002A83B21405C002800D1DD
:1002F000ADE00024E44306487844143000F046FFA3
:10030000201A01D000F014FE00F0E9FD1490000066
:1003100048900000CBCCCC0C641E01D000F0FEFD58
:100320003295079D17AC002D0FD0329E227802A97E
:10033000300000F0B7FE002802D4641C6D1EF5D119
:100340003296002801D000F0F3FD30206946087095
:100350000A9C002C0DDD329D01236A4602A928006B
:1003600000F0B1FE002801D000F0E2FD641EF3D1E0
:100370003295059C089D002D0FD0329E227802A94F
:10038000300000F08FFE002802D4641C6D1EF5D1F1
:100390003296002801D000F0CBFD302769460F705F
:1003A0000B9C002C0DDD329D01236A4602A928001A
:1003B00000F089FE002801D000F0BAFD641EF3D1E0
:1003C0003295059808994418099D002D0FD0329E4A
:1003D000227802A9300000F065FE002802D4641CD7
:1003E0006D1EF5D13296002801D000F0A1FD6846BF
:1003F00007700C9C002C0DDD329D01236A4602A97A
:10040000280000F060FE002801D000F091FD641E7D
:10041000F3D1329502A83821405C400700D466E64B
:100420002020694608700198002800DC5FE6019CE6
:10043000329D01236A4602A9280000F044FE0028EC
:1004400001D000F075FD641EF3D132954FE63F48B0
:100450007844FF30C01F059000F041FD0E9D002D37
:1004600003D5200000F0B6FE09E02A00002120009C
:1004700000F0BCFE002801D0001B00E0280008901E
:1004800000F02DFD349800680268001D3499086062
:100490000020C0430021104002AA03C217A8059003
:1004A000069A3C2302A803C8002904D1002802D1DF
:1004B0000E9C002C13D05B1E05072D0F3035EEB2BD
:1004C0003A2E00DB2735D55400090C0720430909D3
:1004D00001D1002803D0059CD518AC42EBD33C20B9
:1004E000C01A0890D11805910E99884208DA081AA6
:1004F0000A9002A8018FB54A0A40028700F0EFFC7B
:10050000002901D400F0EBFC02A93822895C1422F6
:100510000A40102A01D000F0E2FC0F99079A891ACC
:100520000A9A891A081A002801DC00F0D8FC00F0A9
:1005300021FC02A83B21415C002909D00024E443AE
:100540004B487844FF302B30D8E600BF288E00009F
:100550003A21405C62286AD0682819D06A2845D0C0
:100560006C2806D071284FD0742831D07A2821D039
:100570006FE0349800680168001D349A106000290B
:100580007AD10024E4433B487844FF301738B5E67D
:10059000349800680168001D349A1060002905D164
:1005A0000024E44333487844CA30A7E60D98088015
:1005B00000F095FC349800680168001D349A1060C2
:1005C000002959D10024E4432A487844A63095E60E
:1005D000349800680168001D349A106000294BD1DE
:1005E0000024E443234878448A3087E6349800683E
:1005F0000268001D34990860002A13D10024E443E6
:100600001C4878446E3079E6349800680268001D12
:1006100034990860002A05D10024E4431548784441
:1006200052306BE60D98C11703C200F058FC3498A5
:1006300000680168001D349A1060002905D100246B
:10064000E4430C4878442C3058E60D98087000F0CC
:1006500046FC349800680168001D349A1060002937
:100660000AD10024E44303487844083046E600BF3A
:10067000B88C0000CC8C00000D98086000F02FFCB6
:1006800034980368DB1D072083433498036003CB51
:10069000349D2B6002AB03C32023C80F04D00798FE
:1006A0002D2117AB19540DE002A8008F204204D071
:1006B00007982B2117AB195404E0C00704D50798FD
:1006C00017A90B54401C079017A8079943180593C6
:1006D00026AC02A803C814AD03C5684600782021E3
:1006E000014368468170612909D00E98002801D520
:1006F000062003E003D1672901D113980E9002A8C8
:1007000003C808004D006D156D1C10D109030ED0F3
:1007100003200890613A1A2A04D24E497944FF31E5
:10072000353111E04C497944FF312F310CE0002D77
:100730000FD100030DD103200890613A1A2A15D376
:1007400046497944FF3117310322180000F074FD47
:10075000C5E302A80CC8B9A003C819400026802729
:100760007F03B94207D2002059400DE03C4979444B
:10077000FF311139E8E7080DAE4E361810001900A8
:10078000B04B0B40AC49194302AA03C268468078BB
:1007900061280FD1059830210170811C05916946AF
:1007A0000978612901D1782100E05821417007982A
:1007B000801C079002A803C8A0A20CCA02400B40EC
:1007C00006D1002A04D1002600257EE1EFFF0000BB
:1007D00068468078612800D0B8E00E98002801D5DE
:1007E000212000E0401C1690169F7F1C14A803C80F
:1007F0000022002300F02DFD02A830C802D2802084
:1008000000064540361F019626A90A7026A8461CF8
:10081000002F53DD20002900002280235B0300F01D
:1008200031FD4BD828004A00530D1A001C32002B12
:1008300018D0002A16DDAE4B9A4205DB1B0580223C
:1008400012061040184310E07E480840110501438D
:100850000D000CE0248B0000248B0000288B00008E
:10086000208B00008022120610400024050020008A
:10087000290000F021FD1490FF1F002F09DD00F07A
:1008800055FD02000B002000290000F0B6FD040019
:100890000D00F01D0721149A002A0ADD491E08D414
:1008A000401E13071B0F03701211F5E7401E0022B4
:1008B0000270491EFAD5C61D002FABDC26A831995F
:1008C000711A26AA541C169A0E00914200DD1600D9
:1008D000002E34D48E4205DA411C895D082901DBE3
:1008E0000F2100E00021320026AB9B1801E0761EAC
:1008F0005B1E521E1D788D42F9D00F2904D1411C78
:10090000895C491C401C8154002A04D526AC761C05
:100910000198001D0190711E11D46218684600787C
:1009200013783033DDB23A2D02DB05003A3D5B1916
:100930001370491E521E0029F2D5694608700E98A0
:10094000002800D4C0E0701E0E90BDE014A830C88E
:100950006D006D08684930004843684900F0DAFDD1
:10096000019007200199401A05DD020020002900AE
:1009700000F072FB0AE042420020614900F06CFB8B
:1009800002000B002000290000F01EFE6A4692784B
:10099000662A02D1019A0A3200E006220E9B9A18BA
:1009A000142A00DD142226AB30241C705C1C02E0EB
:1009B00014A803C8169A002A46DD14AB03C3169286
:1009C00014A803C800F08AFC3090064608340425B9
:1009D00030000A2100F0A1FD0F0030000A2100F0D4
:1009E0009CFD06003037601E077030000A2100F0C1
:1009F00094FD0F0030000A2100F08FFD0600A41EB8
:100A0000303727706D1EE3D10834169808381690D9
:100A10000028CDDD309800F079FC02000B0014A80E
:100A200003C800F0EAFC0022364B00F02EFE14AAA8
:100A300003C2C5E702FCFFFF0000E03FFFFFFFFF2E
:100A4000FFFFFF7FFFFF0F803198201A26A94C1C63
:100A5000019902E0401E491E641C2278302AF9D018
:100A6000019169468978662902D10199491C06E0FD
:100A700069468978652901D1139900E000210E9A11
:100A80005618B04200DA461E002E1DD4864204DA03
:100A9000A05D342801DD392100E030213200601EE4
:100AA000831801E0761E5B1E521E1D788D42F9D020
:100AB000392902D1A15C491CA154002A04D50400A3
:100AC000761C0198401C0190019D6846007869469B
:100AD00048700E9F30B2002803DC139E054C7C4406
:100AE00012346846807866280ED16D1C26E000BF5F
:100AF000FF0700009488000097750000A0860100A1
:100B00000000F03F84D7974168468078672846D137
:100B100028B20321C943884247DBB84245DA6D1C3D
:100B200002A8008F1299C0B2084203D130B2B84275
:100B300000DA070028B23F1A00D5002728B20028A3
:100B400000DDB5E00898411C08913021059A115448
:100B5000002F05DC02A8008F1299C0B2084205D010
:100B60000898411C08912E21059A115428B241423F
:100B70008F4200DA7D422DB268420B907D1930B26F
:100B8000854200DA2E0036B209963200210005981F
:100B9000089BC01800F050FBA81B0C90D4E06846DE
:100BA0004078612818D170201BE030B2B84206DAD4
:100BB00002A9098F129AC9B2114200D107007F1E03
:100BC00000D5002768464078672802D1652069462D
:100BD00007E04520694604E068464078412801D195
:100BE000502048700898411C08912178059A1154AA
:100BF000611C002F05DC02A8008F129AC0B21042BF
:100C000018D00898421C08922E22059B1A54002FD7
:100C100010DD741E20B2874200DA3C0022B2059833
:100C2000089BC01800F008FB24B20898001908902F
:100C3000381B0B900598089940186946497801704F
:100C400029B2002903D42B214170861C03E02D22F8
:100C50004270861C4D42002412A928000D0005E0B8
:100C60000A2100F057FC2970641C6D1C00B200289A
:100C7000F6DC012C08DC6846407820210143652918
:100C800002D130203070761C002C09D13020307019
:100C9000761C07E0641E12A8005D30303070761CB0
:100CA000002CF7DC059808994018301A09904BE0A1
:100CB00030B229B288421DDA32B221000598089B71
:100CC000C01800F0B9FA36B20898801908902DB211
:100CD000A91B0B91002F05DC02A9098F129AC9B23A
:100CE000114205D02E21059A11540998401C0990F3
:100CF0000C9729E02AB221000598089BC01800F043
:100D00009BFA28B2089909180891751B002F05DC79
:100D100002AA128F129BD2B21A4204D04A1C089225
:100D20002E22059B5A5429B28F4200DA3D002AB286
:100D300021180598089BC01800F07EFA2DB208987B
:100D400040190890781B0B9002A83821405C1421B0
:100D50000140102900D0C2E00798089940180B996B
:100D60004018099940180C9940180F99884200DBE7
:100D7000B5E0081A0A90B2E002AA3A20105C622894
:100D800008D068280ED06A2814D06C281DD071288D
:100D900010D01AE0349801680868091D349B196066
:100DA000C0B218E0349801680868091D349B1960C6
:100DB00080B210E034980368DB1D07208343349829
:100DC000036003CB349C236006E034980168086814
:100DD000091D349B1960002102AB03C3108F1299C7
:100DE000C0B208425BD002A803C8002901D1002884
:100DF00055D0684600782021014378294FD10798C3
:100E000017A930220A54401C421C07926A461278E5
:100E10000A5444E002AA3A20105C622808D06828EC
:100E20000ED06A2814D06C281DD0712810D01AE07A
:100E3000349801680868091D349B196040B218E0B5
:100E4000349801680868091D349B196000B210E0ED
:100E500034980368DB1D072083433498036003CB79
:100E6000349D2B6006E0349801680868091D349BA6
:100E70001960C11702AB03C3002902DA07982D21BC
:100E800009E0108F204202D007982B2103E0C00711
:100E900005D50798202117AA1154401C079017A8C0
:100EA0000799401805906846017802A800F044F8B8
:100EB00015E013980790349800680168001D349A73
:100EC000106017A801700AE0252017A90870139870
:100ED000079068460078002801D04A7007940F9860
:100EE0000799401A0A99401A0899401A0B99401A12
:100EF0000999401A0C99401A019002A83821405CC7
:100F0000400701D5FFF70DFA2020694608700198C7
:100F1000002801DCFFF705FA019C329D01236A4697
:100F200002A9280000F0CFF8002801D1FFF7F4F95A
:100F30000020C04335B0F0BDF2B586B0040025698D
:100F40006F2901D1082707E00846202101437829AD
:100F500001D00A2700E010273C2603CC083C04AA55
:100F600003C26A46127E642A03D06A46127E692A48
:100F700009D1002907DA04A803C800220023121AA5
:100F80008B4104A80CC004A803C800290DD1002877
:100F90000BD1206B002808D1082F3BD13820205CD2
:100FA000000737D53B26302033E00294009504A893
:100FB00030C8761E0196200029003A00FB1700F089
:100FC00026FC3032D0B23A2803DB6846007E513826
:100FD000121800988255200029003A00FB1700F0F3
:100FE00016FC04000D0001D1002C05D00298C06849
:100FF000009989198842DCD3029C009D082F09D1F1
:101000003820205C000705D5A85D302802D0761E68
:101010003020A8553C20801BA061A919E160216BFC
:10102000884206DA081A2062208F1C490140218775
:1010300010E000290ED53821615C14220A40102AE4
:1010400008D1616B6269891A226A891A081A002814
:1010500000DD206207B0F0BDF8B50026104F040097
:101060000D00009214E0C00707D532003B002000BD
:10107000290000F00AFB04000D00009840100090C9
:101080003000390032003B0000F0FFFA06000F008C
:1010900000980028E7D120002900F4BDEFFF0000F0
:1010A0000000244010B503000C001100A068984710
:1010B000A060002804D0E06A401CE062002010BD5F
:1010C0000020C04310BDF8B50024002B11D007004C
:1010D0000E0014001D002178B068B847B0600028E9
:1010E00009D0F06A401CF0620020641C6D1EF2D131
:1010F00004002000F2BD0020C043F9E7C9B2027825
:101100008A4203D0401C002AF9D100207047F1B474
:101110000168421841684808131800988068C90798
:101120001ED5494640181BE01778521C0770401C1A
:10113000761EF9D1002C13D01678521C89080D4068
:10114000032D01D11578521C290271184D42411905
:10115000A41C05D00D78491C0570401C641EF9D1F3
:101160009A420FD01178521C032503260E4002D15B
:101170001678F61C521C0C090F2CD9D114780F3498
:10118000521CD5E700980C30F2BC704780B500289F
:1011900001D100BF07A006490B68002B03D0222213
:1011A0000021984701E000F067FB222002BD00000B
:1011B000C8860020636F6E73747261696E742068F4
:1011C000616E646C65723A20626164206D65737350
:1011D00061676500431C0178401C0942FBD1C01ABD
:1011E00070470268531C036011707047C9B2521EE9
:1011F00005D30378401C8B42F9D1401E7047002074
:101200007047FEE770B4103A03D378C9103A78C03B
:10121000FBD2530701D318C918C001D508C908C0AB
:10122000D20704D30B880380891C801C002A01D5B7
:101230000B78037070BC70478B0701D18307E1D036
:10124000124205D00B78491C0370401C521EF9D184
:10125000704730B4012464054D00EC420BD85D00AA
:10126000EC4208D80C001C4364000443144304D22D
:10127000994200D1904230BC7047FCD08B42FAD1E9
:101280008242F8E730B4012464054D00EC420BD8EB
:101290005D00EC4208D80C001C4364000443144376
:1012A00004D28B4200D1824230BC7047FCD09942BC
:1012B000FAD19042F8E7FEE7F4464A1805D200F06A
:1012C0000FF801D580174008604700F009F80121A8
:1012D000C907884200D90800404260474A1812D224
:1012E000400DC90208430121C9070843520D40219E
:1012F0000901521A521C06D452421F3201D4D04066
:101300007047C017704700207047FEE70100422277
:101310001201D21E004207D002D4521E0018FCD582
:10132000C10A400512058918704700000100EED57A
:101330004042F446FFF7EBFF0122D207114360471A
:101340008B4200D1824205D98446100062468C4609
:1013500019006346DF184C18640D7F0D3AD0661CE7
:10136000760537D0E61B352E34DCDB022B43DB0A57
:101370000C0DC9022943C912202E0DDB1700203E97
:1013800006D01F00F741F3405F400026012A774155
:10139000C01871410DD217E01700F741F2405740D5
:1013A000F3415A40B340F3405A4000268018594157
:1013B0000AD3A21C52050FD0C207012F7241170099
:1013C0004008CB0718434908641C24054208AF4174
:1013D00070416141F0BC7047641C21050020F9E7B1
:1013E0006B4010E06B40ABE7F742F3D1E943F1E724
:1013F0002442EFD100200021ECE7F0B40125ED07F5
:101400000F005F40EED40C00871A9C4105D2C01B30
:10141000A141D219634169406B40AE0ADF184C18F4
:10142000F442E1D2640D7F0DE2D0E61B362ED1DC12
:10143000DB022B43DB0AA4460C0DC9022943C90A6F
:10144000012E28DC04D1D6075208DF073A435B0897
:10145000EF0A76429041994114D039423BD1B619F6
:1014600040414941761C394204D1761C001849415B
:101470003942FAD0B9436746B74208D9A41B2405BC
:101480002143A7E70042EAD13642E8D1A2E7E40AC5
:10149000E10700209EE7202E0BDD203E1F00F340D9
:1014A000F7415F40012A002257417E429841914115
:1014B0000BE01700F741F2405740F3415A40B34068
:1014C000F3405A407E42904199410A0303D2641E80
:1014D000B619404149410027641E24054208AE4127
:1014E00078416141F0BC7047F446002804D4494279
:1014F00000F013F8404260474042002905D45FD015
:1015000000F00BF8404249426047494200F005F8BC
:101510004942604703460B43E6D40022030A8B424C
:101520000BD203098B4219D243088B422ED2411AA7
:1015300000D20146524110467047FF2209023FD0B7
:1015400012068B4205D3121209028B4201D31212EA
:10155000090203098B4219D300E0090AC3098B422F
:1015600001D3CB01C01A524183098B4201D38B01B5
:10157000C01A524143098B4201D34B01C01A524158
:1015800003098B4201D30B01C01A5241C3088B429D
:1015900001D3CB00C01A524183088B4201D38B0088
:1015A000C01A524143088B4201D34B00C01A52412A
:1015B000884200D3401A5241CFD2014610467047AC
:1015C00008B500F05FF908BDF0B40E005E400125DB
:1015D000ED072E40B446AE0ADF184C18F4423BD259
:1015E000F74241D2640D43D07F0D38D0E41BC902CD
:1015F000DB0229432B43CF0ADB0A0600B61A9F41C0
:1016000004D2641EB6197F41B6185F416812800D7E
:1016100024180018844222DAE80C0021B6197F4110
:10162000B61A9F4102D2B6185F413F1C4041494162
:10163000F4D3241C21DD2405B6197F41B61A9F413D
:1016400005D33743C60737430026012F7041614158
:1016500066463143F0BC7047FCD1F74205D200200A
:10166000C14349054908F3E704D00020C143F1E72D
:101670007F0DFAD000206146ECE72442FAD1401CED
:1016800061410F03F6D30020E2E7F0B50E005E40A3
:101690000125ED072E40B446AE0ADF184C18F4427F
:1016A00008D2F7420ED2640D01D07F0D12D1002076
:1016B0006146F0BD05D1F74201D87F0D05D100206C
:1016C000C143F0BDFBD1640DF9D00020C1434905F1
:1016D00049088FE0E419C902DB0229432B43DB0AE6
:1016E000460DC00231438E4630B487B295B27D4379
:1016F0002E0CADB2140C7C43A419260C24042543F3
:101700009CB27C43A419190C7943270CC919A4B2C3
:101710000F043C43090C000C97B247432E0CBE1932
:101720003543ADB2170C4743360CBF19A6B2BF19EB
:101730003E043543240C3E0C36199FB24743BF1973
:10174000BCB23E0C89191F0C47437F183E0434433A
:10175000390C704680B297B247432E0CBE19354300
:10176000ADB2170C4743360CBF19A6B2BF193E04E1
:101770003543240C3E0C36199FB24743BF19BCB207
:101780003E0C89191F0C47437F183E043443390C23
:1017900077463F0C90B278432E0C80190604ADB208
:1017A0002E43050CA0B22D18120C7A435019020CCE
:1017B00080B2240CA4189AB27A431219140420435C
:1017C000120C89181B0C7B43C91830BCEF0A394234
:1017D00003D1B61940414941641E6F12BF0DE41B8D
:1017E0000BDBFF19BC4211DA240500274208AE4189
:1017F0007841614166463143F0BD641C05D1401C0F
:101800006141CF0201D34908F4E750E75DE7124296
:1018100024D0994228D970B500251B4202D00C0073
:10182000002109E00024012649186441944200D3B4
:10183000A41A7641F8D33100012601E0764109D29D
:10184000001864416D41A41A9D41F7D2A4185D416E
:10185000B619F5D3300022002B0070BD1B42D8D141
:1018600008B500F011F808BD01D19042D3D20200B2
:101870000B0000210020704780B5012000F006F821
:1018800001BDFEE77047FEE77047FEE780B500BF89
:1018900000BF024A11001820ABBEFBE72600020081
:1018A00080B5002000F0A6FD01BD80B500F05FF816
:1018B00000F084F8B4480078002817D002281DD022
:1018C00018D3042822D01DD3062827D022D30828D5
:1018D0002CD027D30A2831D02CD30C2836D031D3A2
:1018E0000E283BD036D30F283CD03FE0002000F03C
:1018F0006FF83BE0012000F06BF837E0002000F0CB
:101900009AF833E0012000F096F82FE0002000F074
:10191000B2F82BE0012000F0AEF827E0002000F044
:10192000F6F823E0012000F0F2F81FE0002000F0BC
:1019300031F91BE0012000F02DF917E0002000F044
:10194000A1F913E0012000F09DF90FE0002000F064
:1019500091FA0BE0012000F08DFA07E0002000F082
:1019600017FC03E0012000F013FCFFE701BD70B598
:10197000854C864801686160A16802680A43A260DC
:101980000025056017E0012061680200AA400A40B6
:10199000A84082420ED17E4E08206843301840682D
:1019A000002807D000F09BFD082068433158AC4860
:1019B00000F08BFF6D1C0A2DE5D370BD80B51B2098
:1019C00001F00CF8002802D0062000F013FD01BD44
:1019D00080B50100C9B2002921D1032000F017FD14
:1019E00000F07DFD9F4800F070FF00F078FD9E48FC
:1019F00000F06BFF00F073FD9C48006800F065FF8D
:101A000000F06DFD9A4800F060FF022000F0FFFC3E
:101A1000012000F00DFD01205B4908700AE0C0B212
:101A2000012807D15848017906220A40002A01D02E
:101A30000221017001BD10B50100C9B200290ED10B
:101A40008A48006800F041FF01F0C9F900F047FD45
:101A5000884800F03AFF03204B4908700AE0C0B202
:101A6000012807D1484CA068800503D500F07EFD11
:101A70000620207010BD80B500210100C9B20029E8
:101A800018D100F02CFD7948006800F01EFF00F02E
:101A900026FD794800F019FF00F021FD774800F09D
:101AA00014FF00F01CFD764800F00FFF05203649BA
:101AB00008702BE0C0B2012828D1002000F0C9FE38
:101AC00000280CD0017A302909D1417A0D2902D0A1
:101AD000417A0A2903D106202B49087016E0002814
:101AE0000CD0017A312909D1417A0D2902D0417AED
:101AF0000A2903D106202449087007E0002805D0F0
:101B000000F0EDFCB848006800F0DFFE01BD80B5D4
:101B100000210100C9B2002918D100F0E0FC5348AF
:101B2000006800F0D2FE00F0DAFCB04800F0CDFE14
:101B300000F0D5FCAE4800F0C8FE00F0D0FCAD4887
:101B400000F0C3FE0720104908701CE0C0B2012855
:101B500019D1002000F07DFE00280CD0017A302938
:101B600009D1417A0D2902D0417A0A2903D10820EE
:101B70000549087007E0002805D000F0B0FC9A483D
:101B8000006800F0A2FE01BD98850020608400205E
:101B90008C94000810B500210100C9B2002923D19E
:101BA00000F09DFC3148006800F08FFE00F097FCCB
:101BB000AC4800F08AFE00F092FCAB4800F085FED5
:101BC00000F08DFCA94800F080FE00F088FCA848D9
:101BD00000F07BFE5D4CA06840218843A06000F0CF
:101BE000FBFF092020703AE0C0B2012837D1002065
:101BF00000F02FFE00280CD0017A302909D1417A5B
:101C00000D2902D0417A0A2903D10A204F490870D0
:101C100025E000280CD0017A312909D1417A0D291B
:101C200002D0417A0A2903D10C204849087016E0F5
:101C300000280CD0017A322909D1417A0D2902D02D
:101C4000417A0A2903D10E204049087007E0002894
:101C500005D000F044FC6448006800F036FE10BD7A
:101C6000E09E00089C9F0008189E00084404002085
:101C70007099000898990008F09A0008FC970008ED
:101C80003098000810B500210100C9B2002922D106
:101C900000F025FCA84C206800F017FE00F01FFCA7
:101CA000A64800F012FE00F01AFCA54800F00DFE58
:101CB00000F015FCA34800F008FE00F010FC2068BE
:101CC00000F003FE00F00BFC9F4800F0FEFD0B202F
:101CD0001E49087038E0C0B2012835D11B4C60782D
:101CE000002803D002282CD028D32DE0002000F0BB
:101CF000B0FD00280BD0017A302908D1417A0D2996
:101D000002D0417A0A2902D10120607015E0002832
:101D10000BD0017A312908D1417A0D2902D0417ABC
:101D20000A2902D10220607007E0002805D000F0E7
:101D3000D6FB2D48006800F0C8FD05E000F008F86B
:101D400002E000F059F8FFE710BD00009885002080
:101D500038B500252800B74CA078002803D0022809
:101D600036D00FD33FE000F0BAFB7348006800F0B4
:101D7000ACFD00F0B4FB6321C94800F0A6FD0120D2
:101D8000A07030E0002000F064FD0500002D1ED0A2
:101D900069682800083000F034FF00F0A0FBC1485B
:101DA00000F093FD69682800083000F0DEFD00F0C7
:101DB00096FB614D286800F088FD00F090FB2868D4
:101DC00000F083FD052000F033FB0220A0700AE044
:101DD0002079800606D500F082FBB348006800F049
:101DE00074FDA570FFE731BD40040020149B00087E
:101DF000BC950008C498000810B58E4CA078002847
:101E000002D001280CD02BE000F069FB4A480068A2
:101E100000F05BFD062000F00BFB0120A0701FE02E
:101E2000207A40061BD5A06840218843A06000F0BE
:101E300056FB9E4800F049FDB2484168806800F0BA
:101E400094FD00F04CFB3C48006800F03EFD00F0C3
:101E500046FB9548006800F038FD0020A070FFE7C1
:101E600010BD0000FC9C000800960008E8930008E4
:101E70004496000810B500210100C9B2002922D102
:101E800000F02DFB2C4C206800F01FFD00F027FB1C
:101E9000874800F01AFD00F022FB294800F015FDEC
:101EA00000F01DFB274800F010FD00F018FB206833
:101EB00000F00BFD00F013FB234800F006FD0D20A1
:101EC0005C49087036E0C0B2012833D1594C6078C3
:101ED000002803D002282AD026D32BE0002000F0CF
:101EE000B8FC00280BD0017A302908D1417A0D299D
:101EF00002D0417A0A2902D10120607013E0002843
:101F00000BD0017A312908D1417A0D2902D0417ACA
:101F10000A2902D10220607005E0002803D0994808
:101F2000006800F0D2FC05E000F010F802E000F0DC
:101F3000C1F8FFE710BD000044040020389B0008F2
:101F4000C8960008489700083C940008F8B500249B
:101F50002000384DA878002806D0022822D014D3BB
:101F6000042869D02DD399E000F0B9FA86480068BA
:101F700000F0ABFC00F0B3FA844800F0A6FCB648D1
:101F8000846004600120A87088E0002000F061FCFB
:101F9000B14C00F063FA20602068002801D00220D4
:101FA000A8707BE000F09BFA7748006800F08DFC99
:101FB00000F095FA63213A4800F087FC0320A870EE
:101FC0006CE0002000F045FC0600002E31D0A24F4E
:101FD0007068386108E02000C0B23018007A210033
:101FE000C9B279180875641C2000C0B26428F2D305
:101FF00000F075FA2B4800F068FC7168300008307A
:1020000000F0B3FC00F06BFA5F48006800F05DFC84
:10201000386830720120706071683000083000F05C
:10202000F0FD052000F004FA01F060F828610420BA
:10203000A87033E098850020287980061FD5864E49
:10204000B0683168884208D2B068401CB06031691D
:102050003000143000F0D5FD1FE000F040FA4A488F
:10206000006800F032FC31687C4800F02EFC00F083
:1020700036FA0D48006800F028FCAC700DE02869C5
:1020800000F08AFBB949884207D300F028FAB84823
:1020900000F01BFC062000F0ADF9FFE7F1BD00BF2A
:1020A0008C930008149D0008480400205C9B0008E5
:1020B000F098000838B5AF4CA078002802D001286D
:1020C00010D05DE000F00BFA2F48006800F0FDFB37
:1020D000062000F0ADF90120A0705F480021C1602A
:1020E00041604DE0207A400637D5A0684021884302
:1020F000A060594DE868002806D102488068007841
:10210000686023E060840020E868696888421DD325
:1021100000F0E5F9984800F0D8FBC44841688068B1
:1021200000F023FC00F0DBF91748006800F0CDFB5D
:1021300000F0D5F96968AE4800F0C7FB00F0CFF9B0
:102140004748006800F0C1FB0020A070E868401C10
:10215000E86000F0CBFF206111E0206900F01CFB7B
:10216000824988420BD33C48C068022807D300F05C
:10217000B6F97F4800F0A9FB062000F03BF9FFE725
:1021800031BD0000400400204404002008970008EE
:1021900010B500210100C9B2002922D100F09FF939
:1021A000A94C206800F091FB00F099F9A74800F0D5
:1021B0008CFB00F094F9A64800F087FB00F08FF943
:1021C000A44800F082FB00F08AF9206800F07DFB53
:1021D00000F085F9A04800F078FB0F2065490870F1
:1021E00038E0C0B2012835D1624C6078002803D0B5
:1021F00002282CD028D32DE0002000F02AFB002854
:102200000BD0017A302908D1417A0D2902D0417AC8
:102210000A2902D10120607015E000280BD0017A54
:10222000312908D1417A0D2902D0417A0A2902D1F7
:102230000220607007E0002805D000F050F9C14886
:10224000006800F042FB05E000F00CF802E000F04E
:1022500095F8FFE710BD0000B08100202895000828
:102260004804002070B500263000424CA0780028B9
:1022700003D002283FD00FD377E000F030F9724846
:10228000006800F022FB00F02AF96321AE4800F05C
:102290001CFB0120A07068E0002000F0DAFA0500C5
:1022A000002D27D0A06840218843A06069682800DD
:1022B000083000F0A6FC00F0B3FC00F010F9A348D1
:1022C00000F003FB69682800083000F04EFB00F0C6
:1022D00006F95D4D286800F0F8FA00F000F928686A
:1022E00000F0F3FA062000F0A3F800F0FFFE2061F2
:1022F0000220A07039E0207A400627D500F096FC35
:10230000A06840218843A06000F0E9F8904800F000
:10231000DCFA464D6968A86800F027FB00F0DFF89A
:102320004948006800F0D1FA00F0D9F82869E96856
:10233000421A6968491E874800F0C7FA00F0CFF8D2
:102340008548006800F0C1FAA6700DE0206900F031
:1023500023FA0649884207D300F0C1F8044800F088
:10236000B4FA062000F046F8FFE770BD1127000020
:102370002C9E0008988500201C99000838B5774CE1
:10238000A078002802D001280CD02FE000F0A7F898
:102390002D48006800F099FA062000F049F8012065
:1023A000A07023E0207A40061FD5A0684021884312
:1023B000A06000F094F86A4800F087FA1B4D696845
:1023C000A86800F0D2FA00F08AF81F48006800F010
:1023D0007CFA6968A86800F014FC00F080F85E4898
:1023E000006800F072FA0020A070FFE731BD000025
:1023F0008497000810B5040000F0F4F95748047001
:1024000000210A0042700A008270416010BD38B598
:102410000400002506E000F062F80B48006800F0B8
:1024200054FA6D1CA542F6D331BD00006084002033
:1024300010B5040000F053F84A4808214C430159F4
:10244000494800F042FA10BD44040020C099000839
:10245000C8960008749500083C94000810B5002444
:10246000002810D0417A0D290DD1017A313909297E
:1024700006D300F034F83348006800F026FA2CE068
:10248000047A303C29E0002819D0817A0D2916D130
:10249000017A30390A2903D2417A30390A2906D320
:1024A00000F01DF82748006800F00FFA15E0017AE7
:1024B00030390A225143407A30380C180DE0002898
:1024C0000BD0417A0D2902D1807A0D2805D000F079
:1024D00006F81C48006800F0F8F9200010BDFEB5B1
:1024E0001E48C06800F058F9FA218900FFF715F876
:1024F00004003C2520002900FFF70FF8060020000B
:102500002900FFF70AF8019130002900FFF705F8CC
:10251000040030002900FFF700F80D001827200004
:102520003900FEF7FAFF060020003900FEF7F5FF3C
:10253000019800902B000A003100724800F0C5F9A4
:10254000F7BD0000400400208C930008149D000893
:10255000C09B0008E89900084804002098850020E6
:102560005C9B00088C940008189C000838B5664CE9
:10257000206800F0AAF9654800F0A7F900230322BB
:102580000121634800F0A1F9624D68690101090960
:10259000614800F09AF9A969604800F096F9E96984
:1025A0005F4800F092F95F4800F08FF96869C00059
:1025B00003D55D4800F089F902E05C4800F085F938
:1025C000206800F082F95A4800F07FF96869400FEE
:1025D000002806D002280CD007D3042811D00CD331
:1025E00013E0544800F071F90FE0534800F06DF922
:1025F0000BE0524800F069F907E051A000F065F9DE
:1026000003E0504800F061F9FFE7206800F05DF951
:10261000296A4D4800F059F9696A4C4800F055F9AB
:10262000A96A4B4800F051F92C20295C494800F078
:102630004CF92D20295C484800F047F9474800F044
:1026400044F92E20285C002803D0022809D004D3A6
:102650000BE0434800F039F90AE0424800F035F950
:1026600006E0414800F031F902E0404800F02DF961
:10267000206800F02AF92F20295C3D4800F025F958
:102680003C4800F022F93020285C002808D00128BE
:102690000AD002280CD003280ED0052810D013E051
:1026A00035A000F012F90FE034A000F00EF90BE0B5
:1026B00033A000F00AF907E0324800F006F903E021
:1026C000314800F002F9FFE7304800F0FEF828003A
:1026D0003130017842781206120C114389B22C482D
:1026E00000F0F3F828003330017842781206120C1B
:1026F000114389B2274800F0E8F8206800F0E5F8B7
:1027000031BD00002C9D000844040020409E0008BC
:10271000349C000860840020449D00085C9D0008F3
:10272000749D0008F09E00084CA0000854A000080A
:10273000A89F0008B49F0008C09F00085CA0000884
:1027400046434300549E0008009F000864A0000810
:10275000109F0008689E0008209F0008CC9F00087A
:102760006CA00008309F000874A00008D89F0008E3
:10277000409F0008509F0008504859004D414300B9
:1027800041445000E49F0008F09F00087CA000082E
:10279000609F00087C9E000810B5040000F0A6FCB5
:1027A000A04204D20021C943091B401800E0001BCD
:1027B00010BDFEE7406AC0B27047C9B2816270477F
:1027C00038B500F00FF80024B3480460446080215D
:1027D0008900220005000835280000F08DFCBB4868
:1027E000047031BD10B50022B948026042608260B9
:1027F0000821C160D821890004001034200000F0B5
:102800007BFC00F093F910BD38B5B24C2068C0696C
:10281000800608D5C448FFF7CDFFC0B200F0FBF832
:1028200008202168086240252068C06928400028E7
:102830000ED0684600F019F9A4480078022805D1A6
:1028400068460178B848FFF7B8FF01E020680562E4
:1028500031BDF8B5040000252F009D4EF06800281A
:1028600003D5BA4800F031F8F560E4B2002C24D169
:102870003068B16888420ED030686C214843301807
:10288000070010373068401C4007400F3060F06888
:10289000401CF06017E00820F06014E030686C2104
:1028A00048433018103000F059F93068401C400798
:1028B000400F3060F068401CF0603068B1688842BA
:1028C000ECD10820F0603800F2BD0EB478B59AB0B3
:1028D00001001FAA01A800F039FC0500002D3ED020
:1028E00001AC6019401E00780A2806D10D2061193C
:1028F000491E08700A2060556D1C954E306871683D
:10290000401A401E00900098002815D5009880219C
:102910008900401800900FE0012000F0F9FC3068B9
:102920007168401A401E00900098002804D5009855
:1029300080218900401800900098A842ECDB00201C
:1029400009E0215C7268B21811727168491CC905EE
:10295000C90D7160401CA842F3D300F09FF8280015
:102960001BB0039970BC04B008477CB505000C008F
:10297000002C31D0764E30687168401A401E0090AD
:102980000098002815D500988021890040180090F3
:102990000FE0012000F0BCFC30687168401A401E56
:1029A00000900098002804D50098802189004018E4
:1029B00000900098A042ECDB002009E0295C7268DE
:1029C000B21811727168491CC905C90D7160401CAB
:1029D000A042F3D300F062F8200076BD10B50100EC
:1029E00000205C4A53689468A34212D053686C2458
:1029F0006343D3181B7E0C00E4B2A34200D1012034
:102A000053685B1C5B075B0F53600200D2B2002A65
:102A1000E7D0C0B210BDF8B505002800C0B200F084
:102A20005BF804004C48017802291DD16C2201009A
:102A30000831484EB0686C235843301807001037EF
:102A40003800FEF7F9FBB068401C4007400FB0604B
:102A5000F068401EF06000F069F8E4B2012C03D188
:102A60002800C0B200F038F8F1BD00B50A490A6884
:102A70004B689A4203D10020144908700BE00A68A1
:102A80008A18127A02700868401CC005C00D0860E0
:102A900002200E49087000BD5877002080B52E48EE
:102AA0007421415C00290FD1294A11685118097A13
:102AB00013685B1CDB05DB0D136001227423C25419
:102AC000C9B21948FFF779FE01BD00009C820020C1
:102AD000E87300202481002000B5010000201E4A78
:102AE0005368D318197453685B1C53605368002BE8
:102AF00001D0012313700B00DBB20D2B02D0C9B241
:102B00000A2904D15168D160022111700AE051688C
:102B1000642907D301200D217323D1546421D1608E
:102B200002211170C0B200BD0044004010B5002267
:102B30000948110001704260FF218160C260642178
:102B400004001034200000F0D7FA10BD109A0008DD
:102B500058770020E8730020288200207047FEE7A5
:102B600080B51300DBB2002200F03FFC01BD80B550
:102B70001300DBB2002200F07FFC002801D101200D
:102B800000E0002002BD38B5AC4908600024AC4824
:102B90002100418021008182210081752100018373
:102BA00021004183210001772100C183210001869A
:102BB000210032228154210081862100C1863821E2
:102BC0002200AB4D280000F097FAB14821000170B7
:102BD00021004170847031BD80B5AE480078012875
:102BE00005D100F077F90120A949087008E0A8484C
:102BF0004178022902D100F092F901E001214170EF
:102C000001BD10B5002204E0835CB14CA41823720E
:102C1000521C642AF8D3AE48416000F0D5F910BDCB
:102C200080B500F063FA9249C86001BD80B500F03C
:102C30005DFA8F49086101BD38B505002878002884
:102C400021D0152800D19CE0192824D025281BD09C
:102C5000B32800D191E0B72827D0B9281CD0BB28D1
:102C600000D186E0C12810D0C42827D0C62826D09D
:102C7000D12858D0D22865D0D42848D0D8283AD0E6
:102C8000DF281DD087E086E085E0794801680122D1
:102C90000A4302607FE07EE0280000F0D3F8744829
:102CA000016804220A43026075E0280000F0BDF8C4
:102CB0006F48016802220A4302606CE06BE06AE040
:102CC00074480078002810D1280000F0D3F870482C
:102CD0004178002902D10221417006E041780129A2
:102CE00003D10221417000F01AF9614801680822FD
:102CF0000A4302604FE0280000F0B1F86448017810
:102D0000002903D00021017000F009F943E00220FE
:102D1000AC494870280000F0BFF8554801681022FF
:102D20000A43026037E05A488178002909D000211F
:102D30008170280000F0B1F84D48016820220A4354
:102D4000026028E0280000F0A9F852480178002924
:102D500003D104209B49487005E00078012802D186
:102D60000520984948704248016840220A430260A1
:102D700011E00020934948700DE00020914948700F
:102D800009E0280000F09BF8394801688022920091
:102D90000A430260FFE7002421000C35286800F098
:102DA00035FC2C6000F03FFC31BD38B504001A251D
:102DB0000C3D200000F026F82818801FE17C401808
:102DC00080B232BD10B50400FFF7EFFF201810BD30
:102DD00010B50400FFF7E9FF2018401C10BD1CB51A
:102DE000B24C00220021200000F0F9FC00210191EA
:102DF00080B20090230014220121AD48006800F049
:102E000052FD13BD00B5010003200A78022A01D14A
:102E1000801C03E00978032900D1083080B200BD8E
:102E2000A44800214170007870474068017A427AD6
:102E30001206120C1143024841807047C0860020E0
:102E40002884002000B540680178002906D1C178A7
:102E500002791206120C11439748018600BD00B595
:102E600040680178002902D140789349087700BD75
:102E70006084002080B54068FFF7AAFF6A4600A979
:102E8000891C00F0FAFB684600888B49C88301BDA5
:102E9000C48600208DA000087047704780B5406848
:102EA000FFF790FF02002632117853781B061B0CA7
:102EB0001943824A89B251602830906001BD10B533
:102EC000212241687E4C2000FEF7B6F910BD0000BB
:102ED0008C7E002038B586B0774C0120208000F031
:102EE00081FDA0826288A18A02A800F09DFB754D39
:102EF0007548009007232288D2B202A9280000F06A
:102F0000F9FB0021019180B200902B00D722012112
:102F10006748006800F0C7FC032007B030BD10B55B
:102F200086B00021274A517068490A78012A1CD1CD
:102F3000614C00F057FDA0826288A18A02A800F0CF
:102F400073FB0120A0756248208362486083201DC6
:102F500002A91022FEF770F9608B0090238B02AA61
:102F6000A17D5D4800F04AFC1EE0097800291BD1D4
:102F7000514CE28B218E02A800F056FB0220322138
:102F800060545448A0865248E0862000203002A9B0
:102F90001022FEF751F9E08E0090A38E02AA322093
:102FA000215C4D4800F02AFC0021019180B2009084
:102FB000494BD32201213E48006800F074FC0120F7
:102FC00006B010BDBC8600201FB500243A4805217C
:102FD00001803E490978012913D102881100491C5A
:102FE00001803E49837D02930B00083301934968B9
:102FF00089B20091038BD2B2011D394800F012FC56
:1030000014E002881100491C018034493223C35C5A
:1030100002930B0008330193496889B20091838EB3
:10302000D2B2010020312E4800F0FCFB00210191BA
:1030300080B200902A4BD02201211D48006800F088
:1030400032FC0120274988702000C0B204B010BDB6
:10305000E0B500F0E8FC002101910021009103009F
:10306000BA2201211248006800F01DFC00200EBDAC
:10307000E0B500F0D8FC002101910021009103008F
:10308000B22201210A48006800F00DFC00200EBDAC
:1030900010B5084C14482178182251434018617823
:1030A0000422514340588047207010BD18860020EC
:1030B000C0860020BC860020288400206084002078
:1030C000748400209865002044A000088DA00008AA
:1030D0002222000011110000F48400208C7E0020C8
:1030E000B4590020C4860020B003002001480068C5
:1030F000704700BF688600201206130A1A43130C9B
:103100001A4300BF094205D0830707D00270401C54
:10311000491EF9D1704700000022FFE71300103963
:1031200006D330B41400150010393CC0FCD230BCBA
:10313000490700D30CC000D504C0890002D3028027
:10314000801C002900D502707047FEE716B582B0DA
:10315000040001940020009003AB0A0001A9074875
:1031600078441830FCF7A8FF0021019A117000285C
:1031700001D40198001B04B010BD00BF67E0FFFF41
:1031800000B5EFF30580002807D1EFF31080002889
:1031900006D022480068022802D10520C04309E079
:1031A0001E480168002903D101210160002001E0CF
:1031B0000020C04300BD80B5EFF30580002807D193
:1031C000EFF31080002806D014480068022802D1CE
:1031D0000520C0430BE011480168012905D10221F7
:1031E000016000F03DFD002001E00020C04302BD71
:1031F000642070470000000010B572B600F0CAFDF0
:103200000400414800686421FEF787F9444362B630
:10321000200010BD3C480068704700003086002048
:10322000F0B587B00300080000240494EFF3058193
:10323000002965D1EFF31081002903D033490968D3
:1032400002295DD006930699002959D08021059165
:10325000182321006D46297303A90025ED43002A98
:1032600031D01668002E00D011689669002E00D06B
:103270009369002B06D0392B04D2012657683740BA
:10328000002F01D000203CE05769002F02D0576981
:10329000BF0805979768002F0AD0D7685C2F07D31F
:1032A0001769002F04D05769002F01D035000BE0BB
:1032B0009668002E08D1D668002E05D11669002E1A
:1032C00002D1250000E02500012D0BD19468029465
:1032D0001269019200930300059A069800F0A8FB7A
:1032E00004900DE0002D0BD104AA0192009303007D
:1032F000059A92B2069800F0C8FB012800D0049409
:10330000049807B0F0BD0000AC0300203086002018
:1033100010B5EFF30581002907D1EFF310810029E3
:1033200006D007490968022902D10524E44304E0D4
:103330000024002801D000F06DFC200010BD00002A
:1033400030860020F8B500263500EFF30583002B0A
:1033500049D1EFF31083002B03D0464B1B68022B9F
:1033600041D000283FD000293DD014000023DB438A
:10337000002C1DD0A268002A0CD0E268502A09D384
:103380002269002A06D0676902004A43974201D3A6
:1033900001230EE0A268002A0BD1E268002A08D1BE
:1033A0002269002A05D16269002A02D1330000E0B7
:1033B0003300012B07D100220092A368226900F09C
:1033C0009FFF050005E0002B03D1002200F0CEFF97
:1033D0000500002D07D0002C01D0216800E031004D
:1033E000280001F070FA2800F2BD38B51D00002257
:1033F0001400EFF30583002B07D1EFF31083002BAC
:103400001ED01C4B1B68022B1AD1002803D00029A8
:1034100001D0002D02D00324E44325E000920023D4
:103420006A4601F079F8012802D00224E4431BE047
:103430000098002818D0802040050D49086013E04E
:10344000002801D0002902D10324E4430CE000232A
:103450002A0000F0BFFF012806D0002D02D0012471
:10346000E44301E00224E443200032BD00000000F8
:1034700004ED00E03086002038B51D000022140065
:10348000EFF30583002B07D1EFF31083002B1DD042
:10349000214B1B68022B19D1002803D0002901D031
:1034A000002D02D00324E44323E000926A4601F099
:1034B0001BF9012802D00224E4431AE000980028F6
:1034C00017D0802040051549086012E0002801D07F
:1034D000002902D10324E4430BE02A0001F072F832
:1034E000012806D0002D02D00124E44301E002248B
:1034F000E443200032BD0A4B03600A480860802084
:1035000010607047084B0360084808608020400046
:1035100010607047000000003086002004ED00E0DD
:10352000A0820020647B0020FC820020E86F002045
:1035300080B270470268120C12040260026889B2FD
:103540000A430260704710B5002000E0401C0200F2
:1035500092B2052A0BDA314A03009BB2812424017E
:103560005C43125D002AF1D10880012000E00020B8
:1035700010BDF8B504000D0069462000FFF7E3FF19
:10358000C0B2002801D1002024E068468570812760
:103590003F01224D68460088784328180600083607
:1035A000346068460188301DFFF7C4FF012069467A
:1035B00009884F43E8558021090168468078002832
:1035C00006D089B20022340008342000FFF794FDB1
:1035D00030000830F2BD80B54068FFF7A9FF8121B7
:1035E000090141430D480022425401BD80B50A0043
:1035F0000021012801DA002007E00949884201D3AF
:10360000002002E00021FFF7B4FF02BD80B50028D2
:1036100002D00838FFF7DFFF01BD00005004002092
:1036200001080000704770477FB502AB974C60CC33
:1036300060C3083C083B6B46954C60CC60C3083CBB
:10364000083B6B460C00A4B2240A1C705970110090
:1036500089B2090A9971DA710022110003E002AC03
:10366000645C4454491C0829F9D303E0995C84182C
:103670002172521C082AF9D37FBDF0B504000D0059
:1036800016000827380080B20221FDF743FF010031
:1036900089B202224A43A218117853781B061B0CE8
:1036A000194380B202224243A218107853781B06B5
:1036B0001B0C1843090280B2000A08432880380016
:1036C00080B2022141436118891E08784A781206A7
:1036D000120C1043BFB2022179436218921E117876
:1036E00053781B061B0C1943000289B2090A0143D7
:1036F0003180F0BD70B514001D00060030001022AE
:10370000FDF79AFD347428007074000AB074280024
:1037100080B2604988420FD20499ADB22A003400C9
:1037200013342000FDF788FD707CB17C0906090C7C
:103730000843133080B209E000210800002802D0BD
:103740005548884701E000F06DF9002070BD10B5C4
:103750000400080011002072000A60720822200094
:10376000FDF76AFD0A2010BD30B504000800150001
:10377000210001F0E5F825712D0A6571062030BDA4
:10378000F8B514001D000600082237003800FDF7C8
:1037900053FD10222100340008342000FDF74CFDB9
:1037A00035762D0A75761A20F2BD38B50C00110059
:1037B00004702200D2B208235A43451C2800FDF7AA
:1037C0003BFDE4B208204443641C200080B232BDBB
:1037D000017001207047017042708370704710B50E
:1037E00003000C0010001C70591C01F0A9F8E4B291
:1037F000002C01D1012000E0052010BD38B50400E7
:10380000080011001D002070601C1022FDF714FD3F
:1038100065742D0AA5746846008AE074000A207554
:10382000152032BDF8B51400069D089E0700B81C8F
:103830001022FDF701FD68460088B874000AF8748C
:103840003C7028003875000A78757E70280080B2B8
:10385000104988420FD20799ADB22A003C001634B5
:103860002000FDF7E9FC387D797D0906090C084345
:10387000163080B209E000210800002802D0074875
:10388000884701E000F0CEF80020F2BD0CA000084F
:1038900014A00008DD050000649800089498000852
:1038A00001814281704770B586B00A9D0B9C6E46BF
:1038B000317069464A700193029503A96A4668CA45
:1038C00068C10C3A0C392300002203A90068FFF7F5
:1038D0008CFD002801D0002000E0012006B070BD62
:1038E00080B5130000220068FFF7C6FD002801D054
:1038F000002000E0012002BD70B586B00A9D0B9C3F
:103900006E46317069464A700193029503A96A4672
:1039100068CA68C10C3A0C392300002203A9406828
:10392000FFF763FD002801D0002000E0012006B071
:1039300070BD80B5130000224068FFF79DFD002890
:1039400001D0002000E0012002BDFEE710B5324C9E
:1039500061882288914201D300200DE02F496288BE
:1039600094235B005343C91894225200FDF764FC72
:103970006088401C6080012010BD80B5264A5060E0
:103980000800002800D0884701BD80B52249496859
:10399000884702BD30B50221002200E0521C13000E
:1039A0000C009BB2A4B2A3420CD294235B001B4C2C
:1039B0001500ADB25D436559A842EFD192B25343B1
:1039C000E01800E0002030BD1CB55320FFF7E2FFF7
:1039D0000222010008316C462000FDF72DFC6846EC
:1039E000008816BD1CB55020FFF7D4FF022201004D
:1039F00008316C462000FDF71FFC6846008816BDA4
:103A000080B5054802210180002141800021044841
:103A1000FFF7B3FF01BD0000D885002000000020A3
:103A20004D3900087047014870470000CD860020DE
:103A300078B585B00B9D002D01D172B6FEE70C9CC8
:103A4000002C01D172B6FEE75C260096009E5C2E2B
:103A500001D072B6FEE7002C12D0002D10D02563E5
:103A600002255926A55500250395029404AD01951C
:103A70000A9D009500F040F8200000F08BF801E06E
:103A800000200490049806B070BDF7B584B007001C
:103A90001D006846018B0420484300F05BFF0600D0
:103AA000002E0BD05C2000F055FF0400002C01D04C
:103AB000266304E0300000F0BBFF00E00024002C8F
:103AC00015D02B0005993800002259256255002297
:103AD000039202940D9A01920C9A00926A46128BFC
:103AE00000F00AF8200000F055F8012001E0002065
:103AF000C04307B0F0BD0000F1B582B00E00150064
:103B00001F000A9C04216943A522206B00900098A5
:103B1000FFF7F2FA0098206B04214D434019001F73
:103B20000721884300900098400701D072B6FEE755
:103B30000025280000E0401C102806D2315C221825
:103B40003423D154315C0029F5D1089E280043214B
:103B50006054382E00D33726E662E6642565201DC2
:103B600001F00DF82000183001F009F82461382028
:103B7000801BA06164626565582025543A00029953
:103B8000009801F03BF820600998002801D00998BE
:103B90000460F7BD38B5040001F068F829480168F1
:103BA000491C0160284D2968002906D12C60006855
:103BB00001280CD100F056FA09E0244800680028DA
:103BC00005D1E06A2968C96A884200D32C60204880
:103BD0000168491C0160006860641E480168E26A6F
:103BE000914201D2E16A0160211D1B48E26A14235F
:103BF0005A43801800F0C6FF01F042F813480068ED
:103C0000002806D02868C06AE16A884201D201F023
:103C100023F831BD10B504000020002C0DD00F4852
:103C20000068002801D072B6FEE700F051F80021CC
:103C3000200000F0EFFA00F053F8002801D101F065
:103C40000BF810BD7C8600206C8600208886002042
:103C50009886002084860020886B0020A48600209F
:103C600038B586B000240494039405AA03A904A8D7
:103C7000FFF741FC4D4D04980290039801900020FD
:103C800000900023059A4A494A48FFF7D1FE286070
:103C90002868002801D0012000E02000012801D17F
:103CA00001F02EF801280DD172B60020C043424920
:103CB00008600120094908607548046000F0B7FFFA
:103CC00007B030BD0021C9438842F9D172B6FEE782
:103CD00035480168491C0160704700008886002053
:103CE000F8B50024250027002F4E3068002801D1A8
:103CF00072B6FEE700F0BAFF3068401E30603068F0
:103D0000002843D125480068002821D13EE0C06842
:103D1000C5682800183000F05CFF281D00F059FF2E
:103D200020480168EA6A914201D2E96A0160291DCE
:103D30007748EA6A14235A43801800F023FFE86AA0
:103D400074490968C96A884202D301207E49086023
:103D5000134801680029DAD1002D01D000F0E3F901
:103D60006D4D2E68002E0AD000F028F8002802D0F1
:103D7000012075490860761E002EF5D12C6072482E
:103D80000068002802D0012700F066FF00F078FFED
:103D90003800F2BD3E480068704700007C86002075
:103DA0003485002084860020A4860020A086002080
:103DB0002CA00008514000089C860020F8B5002483
:103DC0007E480068002857D1314807687F1C07608B
:103DD000002F11D15D4908680068002801D072B633
:103DE000FEE708685A4A13680B601060744801685F
:103DF000491C016000F097F9724E306887422CD35D
:103E00001FE0281D00F0E5FEA86A002803D0280066
:103E1000183000F0DEFE6C480168EA6A914201D277
:103E2000E96A0160291D3A48EA6A14235A43801856
:103E300000F0A8FEE86A37490968C96A884200D3D9
:103E40000124424801680968002911D00068C0684F
:103E5000C56868688742D4D230602E4800682C4913
:103E6000C06A142250430858022809D3012407E0ED
:103E70000020C0433060F0E727480168491C01601A
:103E800031480068002800D001242000F2BD000065
:103E90008086002010B549480068002803D0012022
:103EA0002949086023E0002027490860464908683E
:103EB00000E0401E164A14234343D358002B03D17D
:103EC0000028F6D172B6FEE714234343D218536894
:103ED0005B685360536814000834A34202D15368EE
:103EE0005B6853605268D2680A4B1A60086010BD64
:103EF00010B50C00002801D172B6FEE7054909682B
:103F0000183100F04BFE0121200000F083F910BDB4
:103F1000886B00206C8600208C86002038B50C0051
:103F2000002801D172B6FEE715006E490968183104
:103F300000F028FE2000002D01D00020C043290001
:103F400000F068F931BD00009086002070860020E6
:103F50007486002010B5C068C468002C01D172B608
:103F6000FEE72000183000F034FE144800680028F6
:103F700012D1201D00F02DFE13480168E26A914223
:103F800001D2E16A0160211D5548E26A14235A43B7
:103F9000801800F0F7FD04E021001831524800F0CD
:103FA000F1FD50480068C06AE16A884204D20121EC
:103FB0000800264A116000E0002010BDA486002001
:103FC000948600209C86002084860020474909684A
:103FD00001605E49096841607047000038B504001F
:103FE000002C01D172B6FEE70D00002D01D172B692
:103FF000FEE700F03BFE554800686168411A2A68F8
:104000000023DB439A4201D1002417E0374A1268AB
:1040100023689A4204D06268904201D301240DE0E3
:104020002868814207D22868401A28602000FFF7DC
:10403000CDFF002402E000202860012400F020FED3
:10404000200032BD012001490860704790860020A1
:1040500080B500F029F8224800680228F9D300F062
:10406000FBFDF6E738B5002406E01D481421614346
:10407000401800F075FD641C382CF6D33C4D280028
:1040800000F06EFD3B4C200000F06AFD164800F089
:1040900067FD394800F064FD384800F061FD38489C
:1040A00005605348046031BD38B513E000F0DEFD13
:1040B0003148C068C568281D00F08BFD4D48016877
:1040C000491E01602068401E206000F0D9FD2800D4
:1040D00000F00EF8484C20680028E7D131BD000000
:1040E000886B00206C860020348500209486002098
:1040F00010B504005920205C002806D1206B00F088
:1041000097FC200000F094FC10BD5920205C012891
:1041100003D1200000F08CFCF6E75920205C022837
:10412000F2D072B6FEE700B51548016809680029AB
:1041300004D10020C0433249086005E00068C0682F
:10414000C06840682E49086000BD000080860020DD
:1041500000B52C480068002801D1012006E02A485B
:104160000068002801D1022000E0002000BD00000E
:104170000C85002020850020488500205C850020DB
:104180007086002010B501000C00002000292DD001
:104190001A4909688C4201D072B6FEE7216D0029E8
:1041A00001D172B6FEE7216D491E2165E16AE26C1C
:1041B00091421BD0216D002918D1201D00F009FD6E
:1041C000E06CE0623820E16A401AA06110480168A2
:1041D000E26A914201D2E16A0160211D0B48E26A64
:1041E00014235A43801800F0CDFC012010BD0000BC
:1041F000748600207C860020788600206C86002053
:104200009C86002088860020A4860020886B0020E1
:1042100084860020F8B507000C0017480568154E85
:104220003068001D00F0D5FC0020C043874207D154
:10423000002C05D03068011D104800F0A3FC16E0EA
:10424000EC1930684460AC4206D23068011D0C485D
:10425000006800F0A3FC0AE03068011D094800680E
:1042600000F09CFC084801688C4200D20460F1BD5B
:10427000000000006C860020808600205C85002005
:1042800074860020708600209C86002038B50500CA
:104290000C00002D01D172B6FEE700F0E7FC2868A3
:1042A000E96B2A6C5143401868600020A8632868B5
:1042B000A8602868E96B491E2A6C51434018E860E1
:1042C0000020C0434421685445216854002C0BD180
:1042D0002869002810D028001030FFF73BFE002886
:1042E0000AD000F0B9FC07E02800103000F038FCDC
:1042F0002800243000F034FC00F0C2FC012032BD64
:104300007CB5002801D172B6FEE7002B01D172B650
:10431000FEE7002A01D0002901D0012400E000249A
:10432000E4B2002C01D172B6FEE7002A01D10029C7
:1043300001D1012400E00024E4B2002C01D172B6C6
:10434000FEE750240094009C502C01D072B6FEE78A
:104350001C00002C07D0069B01254626A55500947D
:10436000DBB200F025F8200076BD0000F8B50400AF
:104370001600002C01D172B6FEE70F00002F01D10C
:10438000002001E020007843503000F0E3FA0500FF
:10439000002D0BD033002A005032002046216854F3
:1043A0000095DBB23900200000F002F82800F2BDD1
:1043B00038B5049C002901D1246000E022601D0072
:1043C000E063216401212000FFF760FF4C202554A9
:1043D00031BD0000F6B583B0002635000400002C86
:1043E00001D172B6FEE700910098002802D1206C3E
:1043F000002801D1012000E03000C0B2002801D126
:1044000072B6FEE71F00022F02D1E06B012801D136
:10441000012000E03000C0B2002801D172B6FEE7F2
:10442000FFF796FE002802D10498002801D1012050
:1044300000E03000C0B2002832D172B6FEE7049826
:1044400000284ED0002D03D101A8FFF7BFFD0125A4
:1044500000F016FCFFF73CFC00F008FC0020C04315
:1044600044216156814202D131004422A1544521A8
:104470006156814202D130004521605400F000FCB9
:1044800004A901A8FFF7AAFD00283DD1200000F0F3
:104490000AFA002829D1200000F0BFF9FFF720FC1C
:1044A00000F0E4FBA06BE16B884201D3022FC6D180
:1044B0003A000099200000F05BF9616A002908D0F9
:1044C00020002430FFF746FD002806D000F0C4FB92
:1044D00003E0002801D000F0BFFB00F0D1FB012079
:1044E00018E000F0CDFB002014E00499200010300B
:1044F000FFF7FEFC200000F090F9FFF7F1FB002829
:10450000CED100F0A9FBCBE7200000F086F9FFF741
:10451000E7FB002005B0F0BDFEB516000400002C3E
:1045200001D172B6FEE701910198002802D1206CFA
:10453000002801D1012000E00020C0B2002801D1F4
:1045400072B6FEE700930098022802D1E06B0128C2
:1045500001D1012000E00020C0B2002801D172B6D4
:10456000FEE700F0E5FD0700A06BE16B884202D397
:10457000009802281FD145202556009A0199200055
:1045800000F0F6F828000021C94340B288420DD15E
:10459000606A00280DD020002430FFF7DBFC0028E3
:1045A00007D0002E05D00120306002E06D1C4520B0
:1045B0002554012400E00024380000F0BDFD200057
:1045C000FEBD0000F6B583B000273E000400002CBD
:1045D00001D172B6FEE700910098002802D1206C4C
:1045E000002801D1012000E03800C0B2002801D12C
:1045F00072B6FEE7FFF7ACFD002802D10498002850
:1046000001D1012000E03800C0B2002806D172B606
:10461000FEE7200000F001F9FFF762FB00F026FB47
:10462000A56B002D06D10498002818D100F028FBB6
:10463000002057E00099200000F0DAF86D1EA56315
:104640002069002807D020001030FFF783FC0028E5
:1046500001D000F001FB00F013FB012042E0002E2E
:1046600003D101A8FFF7B2FC012600F009FBFFF718
:104670002FFB00F0FBFA0020C04344216156814229
:1046800002D139004422A15445216156814202D110
:1046900038004521605400F0F3FA04A901A8FFF79F
:1046A0009DFC002813D1200000F0EEF80028B0D0C7
:1046B000049920002430FFF71BFC200000F0ADF827
:1046C000FFF70EFB0028A9D100F0C6FAA6E72000EC
:1046D00000F0A3F8FFF704FB200000F0D5F8002855
:1046E0009CD0002005B0F0BDF7B50400002C01D12E
:1046F00072B6FEE700910098002802D1206C0028D5
:1047000001D1012000E00020C0B2002801D172B622
:10471000FEE700F00DFD0700A66B002E21D044201F
:1047200025560099200000F063F8761EA663280045
:104730000021C94340B288420ED1206900280ED022
:1047400020001030FFF706FC002808D0029800284F
:1047500005D00121016002E06D1C44202554012494
:1047600000E00024380000F0E7FC2000FEBD00005F
:10477000F8B5040000260096A56B206C002808D12F
:104780002068002830D16068FFF7FCFC009066606C
:104790002AE01600002E0FD1226CA6683000FCF72C
:1047A0004BFDA068216C4018A060A0686168884239
:1047B0001AD32068A06017E0226CE7683800FCF785
:1047C0003BFDE068216C4A428018E060E0682168A7
:1047D000884204D26068216C4A428018E060022E50
:1047E00002D1002D00D06D1E6D1CA5630098F2BD96
:1047F00010B50C00016C00290ED0C168026C89183C
:10480000C160C1684268914201D30168C160026C15
:10481000C1682000FCF710FD10BD70B5040000F069
:1048200025FA4520255608E020002430FFF792FBAA
:10483000002801D0FFF706FC6D1E280040B20128B9
:1048400002DB606A0028EFD10025ED4345202554A6
:1048500000F016FA00F00AFA4420265608E020007C
:104860001030FFF777FB002801D0FFF7EBFB761E37
:10487000300040B2012802DB20690028EFD144203B
:10488000255400F0FDF970BD10B5040000F0EEF9FC
:10489000A06B002801D1012400E0002400F0F0F911
:1048A000200010BD000010B5040000F0DFF9A06B7F
:1048B000E16B884201D1012400E0002400F0E0F91E
:1048C000200010BD000010B5002200E0521C082A94
:1048D0000CD2074B082454431C59002CF6D1082451
:1048E0005443195108214A439918486010BD0000EB
:1048F000A883002070B50D001600040000F0B6F982
:104900000020C04344216156814202D1002144224B
:10491000A15445216156814202D1002045216054B5
:1049200000F0AEF9A06B002805D13200290020006C
:104930002430FFF7F3FA2000FFF76FFF70BDFEE7AA
:1049400084460870000A4870000A8870000AC8701F
:1049500060467047FEB5050000240094FFF7B8F9E3
:1049600078480068002801D100F090F82900764FBF
:1049700038680840002851D100290ED073480068DB
:1049800009180720014208D00A0008320140511AD4
:104990000840002801D072B6FEE700293ED06C4DD9
:1049A000286888423AD36B480190066801E0019676
:1049B00036687068884202D230680028F7D16148B2
:1049C000006886422AD06148019A12680368D218AA
:1049D00000923268019B1A60006840007268521AA7
:1049E00090420BD270180200520701D072B6FEE757
:1049F0007268521A4260716000F075F82868716838
:104A0000401A2860544829680268914201D22968F6
:104A1000016070683968014371603460FFF760F9C4
:104A20000098400701D072B6FEE70098FEBD000076
:104A300010B50100002828D04448006842428C1874
:104A40004148616802680A40002A01D172B6FEE757
:104A50002168002901D072B6FEE7616802680A4049
:104A6000002A12D0216800290FD1616800688143B3
:104A70006160FFF72DF936480168626889180160A6
:104A8000200000F030F8FFF72BF910BD10B58022A0
:104A900052013249080043075B0F002B04D0C01DB0
:104AA00007239843121A52182A4B186000215960A4
:104AB0008218264B1B68D21A07239A43214B1A608F
:104AC0001C6861601C682160111A416019680160EE
:104AD0004168214A116040681D4908608020000635
:104AE0001949086010BD10B51A4900E009680A6844
:104AF0008242FBD30A004B68D218824204D14A6832
:104B0000406810184860080002004368D2180B681B
:104B10009A4210D10B4A0B681468A34208D042682D
:104B20000B685B68D21842600A681268026004E091
:104B30001268026001E00A680260814200D00860E9
:104B400010BD0000588600206486002084A0000864
:104B50005C8600201086002060860020A02C0020AB
:104B60000100083141600021C94381600100083122
:104B7000C16001000831016100210160704700211E
:104B80000161704742684A6093688B60936859601E
:104B9000916008610168491C0160704710B50B689D
:104BA0000022D243934201D1026907E00200083299
:104BB00000E0526854682468A342FAD253684B60FC
:104BC0004B6899608A60516008610168491C016006
:104BD00010BD00B50169826843689A6042688368C5
:104BE0005A604A68824201D182684A6000220261AA
:104BF0000868401E0860086800BDFEE7001F8023AB
:104C00005B040360001F0160001F35490160143818
:104C1000026020387047000000B53248006800216B
:104C2000C943884201D072B6FEE772B6FEE780B58E
:104C30002D480168FF2212040A4302600168FF2226
:104C400012060A43026000F03AF800202549086085
:104C500000F05DFA002002BD802040052349086075
:104C6000BFF34F8FBFF36F8F7047000072B61D48C0
:104C70000168491C0160BFF34F8FBFF36F8F70470E
:104C800000B518480168002901D172B6FEE7016835
:104C9000491E01600068002800D162B600BD10B551
:104CA00000F046FA0400FFF789F8002803D08020BE
:104CB00040050E490860200000F03EFA10BD10B516
:104CC0000B4C002020600B4908600B4800686421F1
:104CD000FCF723FC401E094908600720206010BD36
:104CE000194C0008A003002020ED00E004ED00E0D6
:104CF00010E000E018E000E0AC03002014E000E069
:104D000038B586B000252C0000F0A6F97B48006875
:104D1000002818D00495039505AA03A904A8FEF756
:104D2000F1FB774D049802900398019002200090C7
:104D30000023059A73497448FEF77AFE28602868B4
:104D4000002800D00124002C01D172B6FEE720001B
:104D500007B030BD7FB505001E000020002D01D139
:104D600072B6FEE7654C2368002B1CD000910192BF
:104D70000295062911DAFFF7EBF9022806D1089A05
:104D8000002369462068FFF725FB0CE00023002282
:104D900069462068FFF71EFB05E0002332006946E4
:104DA0002068FFF7B9FB04B070BD00007CB50500BA
:104DB0000E00A8480068C068C468201DFFF709FFFE
:104DC000E069012814D132002B00A06929182000C5
:104DD00000F074F800280BD00020009000232A0077
:104DE00000212000FFF7B6FF002801D172B6FEE7D0
:104DF0002000616A884773BD80B5684600F037F8C7
:104E0000009900F003F800F081F8F6E77CB50400A3
:104E10000E00FEF75DFF684600F03DF805000098C3
:104E2000002821D13200002A08D1A54206D3FEF77E
:104E300057FF29002000FFF7B9FF17E0002A07D02D
:104E4000984800680068002801D1012200E0002293
:104E5000611B2A480068FFF74DFDFEF741FF00285F
:104E600004D1FFF7F9FE01E0FEF73AFF73BD00B58C
:104E700078490A681268002A01D1012200E0002264
:104E8000D2B202600068002803D10868C0680068D8
:104E900000E0002000BD70B50400FEF77BFF0500B8
:104EA000814E3068854204D200F0A0F801202060D5
:104EB00001E0002020603560280070BD10B500249E
:104EC000416000618A420BD3D11A8269914201D3B9
:104ED000012410E0011D73480068FFF75FFE0AE03F
:104EE0009A4203D2994201D3012404E0011D59489A
:104EF0000068FFF753FE200010BD0000B0860020C0
:104F0000B486002034A00008F94D000810B586B022
:104F1000FFE7002201A965480068FFF753FB00285E
:104F200061D00198002809D501A8021D002A01D1ED
:104F300072B6FEE7916850681268904701980028A1
:104F4000E7D4039C6069002802D0201DFFF741FED2
:104F500005A8FFF7A0FF0200019800280ED0022844
:104F60000CD00BD3042827D025D3062806D031D364
:104F7000082820D002D309281ED033E0029B0298D3
:104F8000A16941182000FFF799FF0028C1D0200037
:104F9000616A8847E0690128BBD1002000900023A6
:104FA0000298A169421800212000FFF7D3FE0028D3
:104FB000AFD172B6FEE7ACE70298A061A069002805
:104FC00006D01300A06911182000FFF777FFA0E7B3
:104FD00072B6FEE72C20205C002802D12000FFF7EB
:104FE00027FD96E795E706B010BD00007CB505E00B
:104FF00060602461211D2868FFF7D0FD154D2868E9
:10500000006800281FD02868C06806682868C06843
:10501000C468201DFFF7DDFD2000616A8847E06954
:105020000128EBD1A06930188642E1D3002000901E
:105030000023320000212000FFF78CFE002800D062
:10504000DCE772B6FEE7286816490A682A6008603D
:1050500073BD0000A88600207CB5FFF707FE134C47
:10506000206800281BD1124E3000FFF779FD114D4A
:105070002800FFF775FD104806600A48056000200B
:1050800000900E4B0E4A10210A20FFF739F92060DC
:105090002068002803D00B492068FFF714FCFFF7B5
:1050A000EFFD73BDAC860020B8860020B0860020DE
:1050B0007085002084850020A88600205883002069
:1050C000F87F00203CA0000880F308887047EFF3C9
:1050D00009801B4B1A6820381060F0C044464D46CA
:1050E00056465F46F0C008B572B6FEF7D3FE62B60C
:1050F0000CBC116808681030F0C8A046A946B2463A
:10510000BB4680F309882038F0C8184770470C4B1D
:1051100019680868203080F30988022080F3148819
:10512000BFF36F8F3FBCAE4608BC04BC62B61847E5
:10513000EFF3108072B6704780F31088704700005C
:105140006C86002070B5042200231C0000E0641C63
:105150001500ADB2AC4211D21D0000E06D1C202D37
:10516000F5D20426664386197668EE40F607F5D434
:105170002020444360190880012000E0002070BD19
:1051800030B50A0092B25209C906C90E01231400B3
:10519000A4B20425654344196468CC401C40002C2B
:1051A00001D100200DE01400A4B204256543441988
:1051B00064688B409C4392B2042151434018446080
:1051C000012030BD00B50068096802880B889A424A
:1051D00002D20020C04306E009880088814201D243
:1051E000012000E0002000BD10B50C001900491C92
:1051F00092B204235343C218C64BD450C64B042268
:1052000089B2C44C001900F049FF10BDFEB504215D
:105210006A46118000210A000B00BE4BC31801939F
:10522000BD4B02930B0000E05B1C6C462488A3423C
:1052300022D20C0000E0641C202CF5D204255D4332
:1052400045196D68E540ED07F5D520255D432D191D
:10525000ADB218266E4385192E001836019FBC4644
:105260001700BFB204257D4367467E51521C1500CE
:105270000688ADB2B542DED3029B042201880198B4
:1052800000F00CFFF7BDF8B5040008001900069DFA
:1052900080B218234343E0180600183632800822F3
:1052A000B71C3800FBF7C8FF00F00DFF2A000023F1
:1052B00012184B41300010300CC008382388228867
:1052C00031002000FFF790FF2088401C2080F1BDB6
:1052D000FEB507000E0014001D0001A93800FFF7FD
:1052E00031FF002801D1002009E0230032000095A1
:1052F00092B2684681883800FFF7C5FF0120FEBDE5
:10530000F8B504000F00182520001830381A2900BD
:10531000FCF700F90600290000252A003800FDF7F7
:10532000EBFEC82149002A007A4825182800FDF71D
:10533000E3FE310089B22000FFF722FF2088401EE3
:1053400020802088002802D02000FFF75FFF012086
:10535000F2BD38B588B004000D0002A81821FDF791
:10536000DBFE6846058102A801902088002801D153
:1053700000200DE068480090042322886548211829
:1053800001A800F01DFF002801D1002000E0006806
:1053900009B030BDF8B50F0006885E4945180024F5
:1053A000009400E0641C2000310080B289B2884281
:1053B00010D208223900200080B204234343E85869
:1053C000801C00F01BFF0028ECD1A4B20420604335
:1053D000285800900098F2BD10B50822841C2000C7
:1053E000FBF72AFF10BD38B50C00150000F06BFE6E
:1053F0002A00002312184B41200010300CC008383E
:1054000031BDF8B5050043482C582000103003C8C2
:10541000012613E0320092B204235343EA183D4BB5
:10542000D7583A0010320CCA8B4206D801D38242B8
:1054300003D23C003800103003C8761C32002B88A1
:1054400092B29A42E6D300F0ABFE002801D10020D0
:1054500000E02000F2BDC34988807047C149C88080
:105460007047B24800214171007970471CB5002097
:10547000AE494871AE4C002250212000FEF774F96D
:105480000021019180B20090230020220121C24816
:105490000068FEF708FA012016BD0020A3490200AB
:1054A0004A71CB4A88520220704710B586B09F4C93
:1054B000002060716288AB48818802A8FEF7B4F8CA
:1054C000B1200001201802781100491C0170B34C72
:1054D000B34800900523D2B202A92000FEF70AF9D2
:1054E0000021019180B200902300D7220121AA4817
:1054F0000068FEF7D8F9C349002000F0F5FD03204D
:1055000006B010BD8948002141710170BE4941803B
:105510000220704778090000C551000830B501002D
:1055200005200022814B14005C710C00E4B2042CB5
:1055300006D1A74959180C88102525430D8008E08D
:10554000C9B2052905D1A24959180C88202525433F
:105550000D809F4959180C7830252540302D06D1F3
:1055600010001870A84858800A80022008E00A78C5
:10557000D20601D5042003E00978890600D503206E
:10558000C0B230BD1CB504002078002802D000F065
:10559000CFF921E0601C00F041FE50280CD102221E
:1055A0002100093100ACA41C2000FBF745FE684631
:1055B0004088FFF750FF0FE0601C00F02FFE5328DB
:1055C0000AD10222210009316C462000FBF734FE8B
:1055D00068460088FFF742FF13BDF8B505000C7A56
:1055E000487A0006000C04430F002888002807D1E1
:1055F000CE4B3A00210089B22800FFF769FE22E075
:10560000210089B22800FFF7A4FE0600002E0AD16F
:105610002888642817D2C54B3A00210089B2280097
:10562000FFF756FE0FE041484088A4B2844201D102
:1056300000F04EF939003000FFF7CEFEBB4A3100D2
:105640002800FFF7D0FEF1BD10B50400FDF7ADFB5B
:10565000201810BD3EB50500287800282AD1BA4C84
:1056600001202070E87829790906090C084380B2E6
:10567000FFF7F1FE6878A9780906090C084380B2A3
:10568000FFF7ECFE00F01FFDB04A002312184B415B
:10569000200008300CC0083800F015FDAC4A01921B
:1056A000AC4A0092AB4A002312184B410021AA4891
:1056B00000F0CDFD37BD1CB50078002816D10020C4
:1056C000A14908702748C07800F0F7FDA34C0021DD
:1056D0002000FEF77DF80021019180B200902300A8
:1056E000B82201213B480068FEF7DDF813BD1CB568
:1056F00004000800FFF7A8FF6A4600A9891C401CA7
:10570000FDF7BBFF684600880849498888420BD1ED
:10571000684601882000FFF71CFE002804D0834A59
:1057200001002000FFF75FFE13BD0000A03C002039
:10573000F08500201CB504000800FDF743FB6A4615
:1057400000A9891C801CFDF798FF6846018820008D
:10575000FFF7FFFD002804D0744A01002000FFF786
:1057600042FE13BDE885002038B504002000FFF795
:1057700011FE0500002D0DD0A1480178002905D0AB
:1057800029884088814201D100F0A2F82900200038
:10579000FFF7B6FD31BD000048860020A85F00205D
:1057A00004A0000880B5FDF713FB6A4600A9891C18
:1057B000FDF763FF68460088002808D100F083FCED
:1057C000624A002312184B41B2480CC0083801BD90
:1057D000120B00004886002080B5FDF7F9FA6A46F2
:1057E00000A9891CFDF749FF68460088002808D1F8
:1057F00000F069FC554A002312184B41A5480CC023
:10580000083801BDC0D40100FFFF00003EB500F024
:1058100005FDC00003D40220BD49087002E001204C
:10582000BB490870BA4C01206070A94D0022532179
:105830002800FDF799FF0021019180B200902B0014
:1058400020220121A3480068FEF72DF800F03BFC60
:10585000E21C01923F4A00923E4A002312184B413B
:105860000021B74800F0F3FC37BDFEB50500B54C8C
:10587000290089B220000830FFF76BFD0700002FD8
:105880001ED0A44EBA1C39883000FDF760FF0021FD
:10589000019180B200903300B52201218D4800684B
:1058A000FEF701F82078002805D06088ADB2854267
:1058B00001D100F00DF8390020000830FFF720FD7D
:1058C000F7BD4F4901220A70488003204871704794
:1058D00000204B490870AC4A4A8048710220087188
:1058E0007047042046494871704780B505204449F7
:1058F0004871002000F00CFC01BD062040494871B1
:10590000704710B50400601C00F088FC502803D1DB
:1059100002203B49487107E0601C00F07FFC5328DF
:1059200002D101203649487110BD0000983A0000AC
:105930003348002141710171704780B5814840882A
:10594000FFF793FF01BD0000B8850020C0270900C4
:10595000EB85002088130000995A0008CC860020AF
:1059600000B54078153812D00C3810D093380ED0CE
:10597000801E01280BD9C01E09D0801E012806D91F
:10598000173804D0801F012801D9C01F01D1012080
:1059900000E0002000BD10B502000C007B48D2B230
:1059A000212A24D0B42A1ED0B62A19D0B72A06D06C
:1059B000D22A11D0D82A06D0D92A07D01EE0210039
:1059C000FFF70BFE1AE0FFF78CFF17E02100FFF74F
:1059D0008EFEFFF78AFF11E02100FFF7ABFE0DE01E
:1059E000FFF78BFF0AE02100FFF7BEFE06E0200074
:1059F000FFF7C8FD2000FFF784FFFFE710BD0000A0
:105A0000A03C002080B5C0B2B92812D0BB280CD071
:105A1000D22802D0DF2804D00FE00800FFF7C2FE32
:105A20000BE00800FFF7D8FE07E00800FFF743FE91
:105A300003E00800FFF70EFEFFE701BD80B5344A22
:105A40005378002B06D1C0B2152802D10800FFF709
:105A5000DDFE0CE01378012B03D1C0B2FFF79BFFF2
:105A600005E01278022A02D1C0B2FFF7CBFF01BDD8
:105A700080B54748017800290AD10189002907D05B
:105A80000830FFF7BEFC002802D00088FFF719FF9E
:105A900001BD0000C08500201CB53E4C20780028C8
:105AA00015D02000083003C800F07AFB00280ED083
:105AB000FDF7B9FF00210191002100910300BA22F6
:105AC000012135480068FDF7EEFE0020207013BD6F
:105AD000F88500204886002070B52F49086008210D
:105AE000002422000A4D2800FDF706FBB22109011F
:105AF0002200144D2E003000FDF7FEFA2248688087
:105B000010212200234C2000FDF7F6FA70BD0000A2
:105B1000E8850020B44700201CB5204C002200215D
:105B20002000FDF75CFE0021019180B2009023006F
:105B30001422012118480068FDF7B5FE13BD0000CE
:105B4000715A0008A03C002010B515484178002982
:105B500019D00078012816D1002000F0F9FA0028A9
:105B600004D0FFF7EAFE002000F0D2FA084C60797A
:105B70000C4922791C235A438918627904235A4319
:105B800089588847207110BDFFFF0000A83C002005
:105B9000A03C0020B8850020488600200086002018
:105BA000E885002014030020F8B5A0B004000D0023
:105BB0001600402E0BD2002E07D0207829782170B5
:105BC00028706D1C641C761EF7D121B0F0BD8027B3
:105BD000802E00D837003A0021006846FBF72CFBE6
:105BE0003A0029002000FBF727FB3A00694628000D
:105BF000FBF722FBF61BE419ED19002EE7D1E4E7D1
:105C0000F0B5A1B0402B0ED2002B0AD00478157845
:105C100005700D7815700C70491C521C401C5B1EE1
:105C2000F4D121B0F0BD04000E0015001F0080204B
:105C3000802F00D8380000900246210001A8FBF711
:105C4000FBFA009A29002000FBF7F6FA009A3100CF
:105C50002800FBF7F1FA009A01A93000FBF7ECFAF3
:105C600000983F1A241836182D18002FDFD1D8E7D6
:105C7000F8B5A2B00B1A9C1816000500019100920D
:105C8000002E16E08027802E00D837003A000198B9
:105C90000099C91B411802A8FBF7CEFAE21B2900A4
:105CA000E81900F05BFB3A0002A92800FBF7C4FAF0
:105CB000F61BE7D123B0F0BDF8B507000D001400C6
:105CC000069E39002800B047002804D5009A290014
:105CD0003800FFF769FF29002000B047002804D5ED
:105CE000009A21002800FFF75FFF39002800B04725
:105CF000002804D5009A29003800FFF755FFF1BDB0
:105D0000F8B584B003914C00A41C0D005D43461906
:105D100025005D43451900950290080001921F007F
:105D200019E07842281800908C4205D001462800DE
:105D30000A9A9047002801D5641E009D3A00290068
:105D40003000FFF731FF20002E006400A41C0299F0
:105D500022007A438D180199A142E2D2039981422F
:105D600013D2401E440802982100794345182900A7
:105D700030000A9A9047002807DD3A0031002800D9
:105D8000FFF712FF20002E00E8E705B0F0BDFDB5DB
:105D9000A6B00F00DEE0C408641C289844432E9887
:105DA0000090289B2698610042180119FFF784FF94
:105DB00065422E980090289B321931007019FFF728
:105DC0007BFF019845192E980090289B019A60004E
:105DD000414250182900FFF76FFF2E980090289B32
:105DE0002A00310026980019FFF766FF2E9D049CBB
:105DF00000E034002698A04206D20298261821001E
:105E00003000A8470028F4D00398874207D2210029
:105E10003800A847002802D128983F18F4E72E95AB
:105E200001970097250019E0289B02462100009861
:105E3000FFF7E6FE08E0019800998842F4D1289A1D
:105E400021000098FFF7B0FE0098289940180090B4
:105E500028982418019828994018019000980399CF
:105E6000884214D2014620002E9A9047002809D477
:105E70000DDC289A00990198FFF796FE0198289961
:105E8000401801900098289940180090E6E7049483
:105E900019E0289E8027802E00D837003A00210084
:105EA00006A8FBF7C9F93A0029002000FBF7C4F95E
:105EB0003A0006A92800FBF7BFF9F61BE419ED1913
:105EC000002EE7D1059D2698A8421DD202982818D9
:105ED000059004992E9A90470028F3D414DC049876
:105EE000029940180490059D044628984028D0D275
:105EF00028980028E6D021782A78227029706D1C15
:105F0000641C401EDED0F6E7049C2698854246D1EC
:105F10000098039988428ED127984008410840187C
:105F200027902698201A2899FBF7F7FA040003987F
:105F30000199401A2899FBF7F0FA0700A7422E981A
:105F40000090289B279A4AD321002698FFF71FFF2D
:105F5000019826902798002847D0212F45D32698CE
:105F60007908289A5143461811464F43C0190390A7
:105F700004962898371841420291039840180190DE
:105F80002699401A2899FBF7C8FA292800D302E776
:105F90002E980090289B019A3100269824E70298B9
:105FA0002D1800980399884214D10198029940183D
:105FB000019002982418A54205D1289A0199200041
:105FC000FFF7F2FD4AE7289B220001992800FFF71E
:105FD00017FE43E7289A2900FFF7E6FD52E739004C
:105FE0000198FFF7D4FE2700B4E7212F2CD37C08BB
:105FF0000DD0289E2E9D641E009533003A0021008E
:106000002698FFF77DFE002CF5D128962E95269830
:106010002899794344182898414202913D00289ECE
:1060200002982418320021002698FFF7BDFD6D1E4E
:106030002E98009033002A0000212698FFF760FE7A
:10604000012DEDD829B0F0BD012FFBD9269C00977A
:106050002E9E04E0289A21002698FFF709FE00985A
:10606000401E0090EED02898241826992000B047B2
:106070000028EFD42700250028984142029100E033
:106080002F0002982D1829002000B0470028F7D4CF
:106090003800A042E3D0289A2100DEE7002800D192
:1060A00070471CB51C0004D0009313000A00FFF7D2
:1060B0006EFE13BD414A03CA083A0023401C5941F1
:1060C00003C2083A70473D4803C8704700B5010055
:1060D000C9B2002906D13949C0B204225043081878
:1060E000806800E0002000BD10B50200D2B2002A96
:1060F0000CD1324A0300DBB204246343D318996005
:106100000121C0B210180173002000E0012010BD71
:1061100010B50100C9B200290CD1284900220300A2
:10612000DBB204246343CB189A60C0B20818027330
:10613000002000E0012010BD00B52049C0B20818C1
:10614000007B002801D0012000E00020C0B200BD8B
:1061500010B504002000C0B2FFF7EEFF002807D002
:106160002000C0B2FFF7B2FF002801D1012000E0FB
:106170000020C0B210BD10B5002210000F4B00204F
:10618000002103C3083B100007E011001C18217315
:106190000421414359188A60401C0028F5D010BDE5
:1061A00000B5064A0CCA994204D801D3904201D2E4
:1061B000012000E0002000BD00000000C885002094
:1061C000FEB501901F000E00150000E0009D002D9F
:1061D00012D0680800907843341821000198089A7A
:1061E00090470028F2D404D0E61900982D1A6D1EAD
:1061F000EDE7200003B0F0BD0020FBE7A446521EEF
:1062000008D303780C78401C491CA342F7D0181B14
:1062100064467047002064467047FEE7C378827882
:10622000417800781B021A43090212040843104304
:106230007047FEE710B50021080005E00A00464B54
:10624000202444431A55401C0828F7DB10BDFCB538
:10625000002500E06D1C082D05DA3F4C20266E431A
:10626000A45D002CF6D1089C082D05DB002C01D084
:106270000820207000201FE0079E00910190364802
:10628000012120276F43C155019920276F43C7196A
:106290007961009920276F43C719B96120216943AB
:1062A000411808310CC108392021694340180661A2
:1062B000002C00D025700120F6BD00B50100C9B248
:1062C000082905DA0021244AC0B22023584311547A
:1062D00000BD70B50026340033E03000202161435A
:1062E00068542DE0FFF7EFFE02000B002020604312
:1062F0002818083003C88B4222D301D882421FD30A
:106300002020604328188069202161436918496969
:10631000884720206043281800690028DDD0FFF757
:10632000D2FE02000B0020206043281800690021E3
:106330008018594120226243AA18083203C2083A41
:10634000641C082C06DA044D20206043285C0028D9
:10635000C8D1F5E770BD0000F87E0020814202D26E
:106360005318984203D300B5FAF766FF00BD521EDA
:1063700003D38B5C8354521EFBD2704710B50400CC
:10638000002C01D1012037E0A0690028FFD1802036
:106390002058002805D100207C216054200000F006
:1063A000A5FC2420802160502068006801218843DA
:1063B00021680860200000F023F8012801D10120A5
:1063C0001AE0A06A002802D0200000F03CFB206800
:1063D00040680A49014020684160206880682A219D
:1063E0008843216888602068006801210143206893
:1063F0000160200000F098FB10BD0000FFB7FFFF18
:1064000070B504000026300035003100A168226913
:106410000A4361691143E2690A43616E11432268CC
:106420001268854B1340194322681160216849683E
:10643000824A0A40E168114322685160A269216AD8
:106440001143226892687E4B134019432268916081
:106450002168C96A0F229143626A0A432168CA62AD
:106460002168784A914215D1774909688907890FCF
:10647000002905D0022905D006D3032906D007E05C
:1064800032002FE002222DE004222BE0082229E036
:10649000102227E021686D4A914216D16A490968A5
:1064A0000C220A40002A06D0042A08D0082A04D068
:1064B0000C2A06D007E0320014E0022212E0042287
:1064C00010E008220EE010220CE02168604A9142A0
:1064D00001D1320006E021685E4A914201D13200CA
:1064E00000E0102280210902E3698B4200D05FE1C5
:1064F000D2B2002A08D0022A52D0042A00D1ADE03C
:10650000082A00D1F6E041E100F0CFFF616A0029DE
:1065100001D1012138E0616A012901D1022133E072
:10652000616A022901D104212EE0616A032901D1A7
:10653000062129E0616A042901D1082124E0616A69
:10654000052901D10A211FE0616A062901D10C2128
:106550001AE0616A072901D1102115E0616A082952
:1065600001D1202110E0616A092901D140210BE00D
:10657000616A0A2901D1802106E0616A0B2902D1F2
:106580008021490000E00121FAF7C7FF02214843BA
:106590006168490840186168FAF7BFFF80B2F6E009
:1065A000606A002801D1012138E0606A012801D128
:1065B000022133E0606A022801D104212EE0606AE2
:1065C000032801D1062129E0606A042801D10821AD
:1065D00024E0606A052801D10A211FE0606A0628CC
:1065E00001D10C211AE0606A072801D1102115E0C1
:1065F000606A082801D1202110E0606A092801D1D1
:1066000040210BE0606A0A2801D1802106E0606A1F
:106610000B2802D18021490000E001210E48FAF741
:106620007CFF022148436168490840186168FAF715
:1066300074FF80B2ABE000BFF369FFCFFFCFFFFF75
:10664000FFF4FF11003801405410024000440040A4
:1066500000480040004C00400024F40000F0D4FE4C
:10666000616A002901D1012138E0616A012901D163
:10667000022133E0616A022901D104212EE0616A1E
:10668000032901D1062129E0616A042901D10821E9
:1066900024E0616A052901D10A211FE0616A062907
:1066A00001D10C211AE0616A072901D1102115E0FE
:1066B000616A082901D1202110E0616A092901D10C
:1066C00040210BE0616A0A2901D1802106E0616A5C
:1066D0000B2902D18021490000E00121FAF71DFFBA
:1066E000022148436168490840186168FAF715FFBC
:1066F00080B24CE0606A002801D1012238E0606A73
:10670000012801D1022233E0606A022801D104226B
:106710002EE0606A032801D1062229E0606A04287D
:1067200001D1082224E0606A052801D10A221FE075
:10673000606A062801D10C221AE0606A072801D19C
:10674000102215E0606A082801D1202210E0606A5A
:10675000092801D140220BE0606A0A2801D1802279
:1067600006E0606A0B2802D18022520000E001227C
:1067700008001100FAF7D1FE022148436168490878
:1067800040186168FAF7C9FE80B200E00125584957
:106790000200103A8A4209D2020011404008400724
:1067A000400F084380B22168C86041E101253FE104
:1067B000D2B2002A08D0022A50D0042A00D199E08F
:1067C000082A00D1E0E029E100F06FFE616A0029AB
:1067D00001D1012138E0616A012901D1022133E0B0
:1067E000616A022901D104212EE0616A032901D1E5
:1067F000062129E0616A042901D1082124E0616AA7
:10680000052901D10A211FE0616A062901D10C2165
:106810001AE0616A072901D1102115E0616A08298F
:1068200001D1202110E0616A092901D140210BE04A
:10683000616A0A2901D1802106E0616A0B2902D12F
:106840008021490000E00121FAF767FE61684908EC
:1068500040186168FAF761FE80B2E0E0606A0028E3
:1068600001D1012138E0606A012801D1022133E021
:10687000606A022801D104212EE0606A032801D158
:10688000062129E0606A042801D1082124E0606A19
:10689000052801D10A211FE0606A062801D10C21D8
:1068A0001AE0606A072801D1102115E0606A082803
:1068B00001D1202110E0606A092801D140210BE0BC
:1068C000606A0A2801D1802106E0606A0B2802D1A3
:1068D0008021490000E001219248FAF71EFE61681C
:1068E000490840186168FAF718FE80B297E000BFC7
:1068F000F0FF000000F088FD616A002901D101214C
:1069000038E0616A012901D1022133E0616A02297C
:1069100001D104212EE0616A032901D1062129E079
:10692000616A042901D1082124E0616A052901D1A5
:106930000A211FE0616A062901D10C211AE0616A6F
:10694000072901D1102115E0616A082901D1202110
:1069500010E0616A092901D140210BE0616A0A292E
:1069600001D1802106E0616A0B2902D18021490012
:1069700000E00121FAF7D1FD61684908401861681B
:10698000FAF7CBFD80B24AE0606A002801D101220B
:1069900038E0606A012801D1022233E0606A0228EF
:1069A00001D104222EE0606A032801D1062229E0E9
:1069B000606A042801D1082224E0606A052801D118
:1069C0000A221FE0606A062801D10C221AE0606AE0
:1069D000072801D1102215E0606A082801D1202281
:1069E00010E0606A092801D140220BE0606A0A28A1
:1069F00001D1802206E0606A0B2802D18022520079
:106A000000E0012208001100FAF787FD61684908DB
:106A100040186168FAF781FD80B200E001250100AD
:106A20001039754A914202D22168C86000E0012500
:106A3000012001006A22A15268216052E6662667A1
:106A40002800C0B270BD00B52821415CC90707D538
:106A500001684968694A0A40C16A11430268516085
:106A60002821415C890707D501684968644A0A40C2
:106A7000016B1143026851602821415C490707D529
:106A8000016849685F4A0A40416B114302685160DE
:106A90002821415C090707D5016849685A4A0A401C
:106AA000816B1143026851602821415CC90607D5FA
:106AB00001688968554A0A40C16B114302689160B8
:106AC0002821415C890607D501688968504A0A4037
:106AD000016C1143026891602821415C490614D57C
:106AE000016849684B4A0A40416C11430268516091
:106AF000416C80225203914207D101684968464A9D
:106B00000A40816C1143026851602821415C0906EA
:106B100007D501684968414A0A40C16C11430068C1
:106B2000416000BD0024F4007CB5040000258820ED
:106B30002550FCF7DBFA06002068006800070CD53A
:106B4000374800903300002280218903200000F0A4
:106B50001EF8002801D0032018E0206800684007D4
:106B60000CD52F480090330000228021C90320005B
:106B700000F00DF8002801D0032007E0202080213C
:106B80006050842160507C202554002076BDF4B5EF
:106B900004000D001F00069E2068C0692840A8421E
:106BA00001D1012000E0002069460978884220D107
:106BB0000020C0438642EFD0FCF798FAC01B864203
:106BC00001D3002EE8D120680068164901402068F2
:106BD0000160206880680121884321688860202046
:106BE000802160508421605000207C21605403206B
:106BF00000E00020F2BD0000F0FF0000FFFFFDFFFD
:106C0000FFFFFEFFFFFFFBFFFF7FFFFFFFEFFFFF29
:106C1000FFDFFFFFFFFFEFFFFFFF9FFFFFFFF7FF1C
:106C2000FFFFFF015FFEFFFF10B5664C6648206066
:106C3000E120400260600020A060E06020610C2143
:106C40006161A061E06120626062A0622000FFF7E4
:106C500095FB002801D000F053FD0021200000F03A
:106C600073FD002801D000F04BFD0021200000F052
:106C700095FD002801D000F043FD200000F042FD0A
:106C8000002801D000F03CFD10BD10B54F4C50481D
:106C90002060E120400260600020A060E060206190
:106CA0000C216161A061E06120626062A06220004D
:106CB000FFF764FB002801D000F022FD0021200036
:106CC00000F042FD002801D000F01AFD0021200054
:106CD00000F064FD002801D000F012FD200000F05B
:106CE00011FD002801D000F00BFD10BD10B586B0DD
:106CF000040014220021684600F0C2FD20683249D9
:106D000088422DD18020C00132490A6802430A60BE
:106D1000096808400590059801202F490A68024338
:106D20000A600968014005910599C021C9000091D8
:106D30000221019102900321039104906946A02051
:106D4000C00500F0A7FD20680068402101432068CD
:106D500001602068006820210143206801602FE065
:106D600020681B4988422BD1802080021B490A6879
:106D700002430A60096808400590059801201649F9
:106D80000A6802430A6009680140059105990C21CF
:106D90000091022101910290032103910490694620
:106DA000A020C00500F076FD206800684021014366
:106DB000206801602068006820210143206801608C
:106DC00006B010BD988000200038014024810020CA
:106DD0000044004040100240341002403C10024089
:106DE00002480168E020C0010840704708100240D6
:106DF000F8B50400002C01D101202DE22078C00755
:106E000057D5AB48016838200840AA490968890766
:106E1000890F102801D1032901D0082808D1BB48C7
:106E20000068800345D56068002842D1012013E244
:106E3000802040026168814204D1B4490A6810434D
:106E4000086017E06168A022D202914209D1AF49DF
:106E50000A688023DB0213430B600A681043086052
:106E600008E0AA480168AA4A0A4002600168A94AE3
:106E70000A400260606800280DD0FCF737F9050071
:106E8000A2480068800314D4FCF730F9401B652841
:106E9000F6D30320E0E1FCF729F905009B480068E0
:106EA000800306D5FCF722F9401B6528F6D30320A2
:106EB000D2E1207880075DD57D4801683820084000
:106EC0007C4909688907890F102801D1022901D05E
:106ED00000282BD18D4A1168490504D5E1680029A5
:106EE00001D10120B8E1B5490B68B54D1D4063697A
:106EF0001B022B430B60002810D11068BF490140D2
:106F0000206908431060BE4801211268D20A520766
:106F1000520F9140FAF701FBBA490860BA4800687D
:106F200000F0F4FD002825D0012095E1E06800285C
:106F300032D0764D2868B149014020690843286065
:106F400028688021490001432960FCF7CFF806003A
:106F50002868400506D4FCF7C9F8801B0328F7D33E
:106F6000032079E195480168954A0A406169090260
:106F7000114301602078000747D54D48006838214B
:106F8000014018291AD1B548006880073DD5A0698D
:106F900000283AD101205FE15C4D2868B0490140EA
:106FA0002960FCF7A3F8060028684005E2D5FCF745
:106FB0009DF8801B0328F7D303204DE1A06900282A
:106FC00011D0A64D2868012101432960FCF78EF8F5
:106FD00006002868800718D4FCF788F8801B03286F
:106FE000F7D3032038E19D4D2868012188432860AC
:106FF000FCF77CF806002868800706D5FCF776F8D1
:10700000801B0328F7D3032026E1042520682840AD
:10701000002800D188E0002625480068382101407A
:10702000202909D18F480068800700D47CE0A0683F
:10703000002879D101200FE1802040058A490968A4
:107040000140002908D188490A6802430A6009689A
:107050000840009000980126844F3868C00512D47B
:1070600038688021490001433960FCF73FF80090FF
:107070003868C00507D4FCF739F80099401A03288E
:10708000F6D30320E8E0A068012805D1754801681F
:1070900001220A43026018E0A06805280CD171485B
:1070A00001680D430560016801220A4302600CE09B
:1070B000081002400C1002406A4801680122914306
:1070C00001600168042291430160A06800280ED08D
:1070D000FCF70CF805006348006880071CD4FCF737
:1070E00005F8401B62498842F5D30320B4E0FBF762
:1070F000FDFF05005B48006880070DD5FBF7F6FF34
:10710000401B5B498842F5D30320A5E000100240F4
:10711000FFFFFEFFFFFFFBFFF6B2012E04D1524836
:107120000168544A0A400260E069002800D192E0F8
:107130005148006838210140102967D0E0690228D1
:1071400040D1AC4D2868AC4901402960FBF7CEFF27
:1071500007008026B60428683040002806D0FBF7D8
:10716000C5FFC01B0328F4D3032075E0A4480168C1
:10717000A24A0A40216A1143626A0A43A16A0902CB
:107180001143E26A0A43216B11430160296880229E
:1071900052040A432A600168802252050A430260B1
:1071A000FBF7A4FF040028683040002853D1FBF708
:1071B0009DFF001B0328F6D303204DE0041002407E
:1071C000FF80FFFF8B4C20688B49014021608C4879
:1071D000016803229143016001688A4A0A40026003
:1071E000FBF784FF05002068800134D5FBF77EFFA4
:1071F000401B0328F7D303202EE000BFFFC7FFFF8B
:107200000024F400AC030020A4030020E06901285E
:1072100001D1012020E07A4800688107890F226AA5
:10722000914216D170210140626A914211D1FE2132
:10723000C9010140A26A120291420AD1F8218903D0
:107240000140E26A914204D1400F4007216B88421D
:1072500001D0012000E00020F2BD000060100240DB
:10726000FFFEFFFF5C1002403C1002400070004037
:1072700089130000FFFFFFEF08100240FEB5040075
:10728000002C01D10120B4E0009107258F4E306819
:1072900028400099884215D2306807218843009918
:1072A00001433160FBF722FF070030682840009956
:1072B000884207D0FBF71AFFC01B85498842F4D3E8
:1072C000032096E002202168014000290FD0217898
:1072D000490705D57F490A68E023DB0113430B60AA
:1072E0007C490A687C4B1340A2681A430A602178E3
:1072F000C90745D56168012905D13E48006880036A
:1073000024D4012075E06168022905D1394800685C
:1073100080011BD401206CE06168002905D135484B
:107320000068400512D4012063E06168032906D19A
:107330006A4909680840002808D1012059E06849D5
:1073400009680840002801D1012052E0614F3868E7
:1073500007218843616801433960FBF7C7FE01904C
:107360003868382101406068C000814208D0FBF7CE
:10737000BDFE0199401A56498842F1D3032038E0F6
:10738000009831682940884215D230680721884327
:10739000009901433160FBF7A9FE070030682840DF
:1073A0000099884207D0FBF7A1FEC01B48498842DC
:1073B000F4D303201DE02078400706D54548016836
:1073C000544A0A40E1681143016000F01DF8524937
:1073D000404A1268120A1207120F04235A43895CAA
:1073E000C906C90EC8404D4908604D48006800F004
:1073F0008DFBFEBD00100240FFFFFFFE8C80C11F11
:107400000C100240FFFFFEEF10B5382031490A682A
:107410000240002A0AD1012142480068C00A400700
:10742000400F81404048FAF778F83AE00A68024095
:10743000082A01D13D4834E00A680240102A21D1CF
:107440003B4C20688007800F216809094907490FD4
:10745000491C032808D13548FAF75FF82168090A62
:107460004906490E484307E02F48FAF756F82168C5
:10747000090A4906490E48432168490F491CFAF791
:107480004CF80EE00A680240202A02D18020000257
:1074900007E009680840182802D1FA20C00100E07E
:1074A000002010BD1D480068704710B5FFF7FAFFB7
:1074B0000400FFF795FC1F49000B04225043085CB1
:1074C000C006C00EC440200010BD000000200240D5
:1074D0008913000008100240FFF0FFFF6010024017
:1074E0005C10024030B407220260134B1C68144049
:1074F00044601C68F0252D01254085601B68E02450
:10750000E4011C40C4600D48006802400A6030BCC1
:1075100070470000FF8FFFFF88960008AC03002033
:10752000A4030020001002400024F40000127A009E
:107530000C100240A09B00080810024000200240EE
:1075400038B500F021FB00F06AF8032000F0DEFA05
:107550000028FAD100F03AFB00F0B4FB012834D146
:1075600000F0BEFB634C01224021200000F08DFAA8
:1075700080256D0001222900200000F086FA0122FA
:1075800080218900200000F080FAA024E405012277
:107590002900200000F079FA00F09BFB002805D1BB
:1075A00000224021544800F070FA04E001224021FA
:1075B000514800F06AFA00F0B1FB2900200000F009
:1075C0006EFA00F09CFB30BFFDE700F0FFFAFFF71A
:1075D0002BFBFFF75AFB00F06CF8464C01224021D0
:1075E000200000F052FA80256D00012229002000C1
:1075F00000F04BFA012280218900200000F045FABA
:1076000001222900A020C00500F03FFA00F068FB2D
:10761000FBF7B6FD00F017FCFBF7CDFDFEE738B534
:1076200098B03422002104A800F02AF91022002189
:10763000684600F025F91C22002111A800F020F96D
:107640008020800000F096FC0224049480204000FA
:10765000079000250895402009900B940C940D95F7
:1076600010200E90802080020F90C020C005109046
:1076700004A8FFF7BDFB002801D000F041F8072067
:10768000009001940295039502216846FFF7F6FDEC
:10769000002801D000F034F80320119012951395C2
:1076A00011A800F091FC002801D000F029F819B0D1
:1076B00030BD80B5002202211B2000F0C4FD1B203C
:1076C00000F0C6FD002202211C2000F0BCFD1C20A1
:1076D00000F0BEFD01BD38B50500084C2868A04289
:1076E00001D1FEF7E7FC2868A04201D100F0CAFDF5
:1076F00031BD0000000800500004005000100040A0
:107700007047FEE700B57C21415C012901D10220D0
:1077100019E001217C2281542421802281500168BA
:1077200009680268126801239A4303681A60504A84
:107730000A400021416603681A6020228023C2505B
:107740007C228154002000BD38B504007C20205CE0
:10775000012801D1022020E001207C22A054242015
:107760008022A050206805682068006801229043AC
:107770002268106020688068C000C008014320684B
:107780008160200000F034F820680560202080210E
:10779000605000207C216054002032BD38B50400C8
:1077A0007C20205C012801D1022020E001207C22E5
:1077B000A05424208022A05020680568206800681A
:1077C000012290432268106020688068294A0240A4
:1077D000114320688160200000F00AF820680560ED
:1077E00020208021605000207C216054002032BD88
:1077F000F0B585B0040003A81F490CC90CC00839B6
:10780000083801A81D490CC90CC008390838606E39
:10781000002805D101206A2160526821605225E0CC
:107820000820050021688968490E4907490F6A4602
:10783000117021688968490F01AE03AFC0B20A0018
:10784000D2B2BA5C5043C9B2715CF9F763FE6A21E7
:107850006052EDB268460078385C454328006946BE
:107860000978715CF9F756FE6821605205B0F0BDE9
:10787000FFFFFFDFFFFFFFF11CA0000824A00008AE
:1078800010B504000800110002002000FBF734FCD2
:10789000200010BDF8B50200002332E0052403E00B
:1078A0006E4CA242FAD134001F003E4008277E43AE
:1078B000B44004436A489E0804277E438451694CBF
:1078C0002068A8434E68F60300D528432060664C24
:1078D0002068A8434E68B60300D528432060634C57
:1078E0002068A8434E68F60200D528432060604C0B
:1078F0002068A8434E68B60201D5054328002060E1
:107900005B1C0868D840002800D1A6E00124086864
:1079100025009D400540002DF2D04868022802D085
:10792000486812281ED1D808042670431018076A28
:10793000072000970F26B4461F0007400426774310
:107940006646BE40009FB743BC460E691F003840E4
:1079500004277843864067463E43D8080427784387
:107960001018066217680326BC461F000220474312
:107970003000B840674687430097486830408446E7
:107980001F00022047436046B840009F3843106004
:107990004868012808D04868022805D0486811289E
:1079A00002D0486812281DD19768BC461F000220EB
:1079B00047433000B840674687430097C86884460D
:1079C0001F00022047436046B840009F3843906044
:1079D0005768200098408743486800092040984035
:1079E00038435060D768BC461F0002204743300030
:1079F000B840674687430097886884461F00022086
:107A000047436046B840009F3843D0604868C00094
:107A100000D475E7124884469F0804204743604617
:107A2000C05900900F27BC461F003000384008277F
:107A30007843674687400098B843A027FF05BA42BD
:107A400001D1002430E72C4FBA4200D12CE72B4C57
:107A5000A24200D024E7022426E7F1BD000C00502A
:107A6000601802408018024084180240001802404A
:107A70000418024000B5006989B20840002801D00E
:107A8000012000E00020C0B200BD00B5D2B2002A43
:107A900002D089B2816101E089B2816200BD00B586
:107AA00042690B009BB21A40002A02D089B281625F
:107AB00001E089B2816100BD10B504001048016881
:107AC000220092B21140002906D0210089B2016043
:107AD000200080B200F018F80A480168220092B233
:107AE0001140002906D0210089B20160200080B237
:107AF00000F0D4FB10BD000000040050000800504E
:107B00000C180240101802407047FEE738B586B0E6
:107B100001000024200020000022112000F093FB2F
:107B2000112000F095FB102012490A6802430A60F8
:107B3000096808400090009801A902A8FFF7D2FC4C
:107B4000FFF7B3FC0C49F9F7E8FC401E0B4D0C495C
:107B500029600C49E96068602C61AC60280000F085
:107B60009FFB002803D1280000F0B6FB00E00120B5
:107B700007B030BD3C10024040420F00E8830020B7
:107B800000100040E703000010B500240C48016815
:107B9000802252000A4302600020FFF7B7FF00284E
:107BA00001D0012401E000F0E5FC2000C0B210BDCE
:107BB00004490A68044B13401843086070470000EA
:107BC0000020024000000140FFF9FFFFF8B586B039
:107BD000142200216846FFF753FE20213448026832
:107BE0000A43026002681140059105990421026868
:107BF0000A43026002681140059105990124016859
:107C00002143016001682140059105990168022224
:107C10000A4302600068022108400590059800228E
:107C200002212448FFF731FF002223492348FFF7B0
:107C30002CFF80277F0000223900A020C005FFF71D
:107C400024FFD026B600002231001D48FFF71DFF9B
:107C5000022000900194002502950395694615487D
:107C6000FFF718FE0C200090019502200290694653
:107C70001348FFF70FFE10480090019402950395FA
:107C800069460E48FFF706FE00970194029503959A
:107C90006946A020C005FFF7FDFD009601940295FE
:107CA000039569460648FFF7F5FD07B0F0BD00BF34
:107CB000341002400014005042180000000400502C
:107CC0000008005080B508215648FFF7D3FEC0B227
:107CD00002BD80B504215348FFF7CCFEC0B202BDFF
:107CE00010B5514C0022802149012000FFF7CDFE44
:107CF0000022802109012000FFF7C7FE10BD10B54A
:107D0000494C0122802149012000FFF7BEFE0122DB
:107D1000802109012000FFF7B8FE10BDF0B585B045
:107D20004024E44341480168096821400268116029
:107D30002025ED43016809682940006801601B2087
:107D400000F08BFA3A48016809680C4001680C6041
:107D5000016809680D40006805601C2000F07DFA8C
:107D60008020C0000090002702970325039531482A
:107D70000190A024E40569462000FFF78BFD8020D8
:107D80008000009001260196029703956946200025
:107D9000FFF780FD00220021072000F054FA802028
:107DA000C000FFF789FE072000F05CFA072000F012
:107DB0004FFA08200090029603951E4801906946EC
:107DC0002000FFF767FD04200090019602970395BD
:107DD00069462000FFF75EFD00220021062000F02A
:107DE00032FA0820FFF768FE062000F03BFA062072
:107DF00000F02EFA8021C9002000FFF73BFE0200B0
:107E0000D2B204212000FFF740FE08212000FFF736
:107E100031FE0200D2B2802189002000FFF735FE3A
:107E200005B0F0BD0008005000040050988000200C
:107E3000248100200000311080B5802189003B485A
:107E4000FFF72DFE01BD10B5394C3A4A0C21022036
:107E5000FBF778FA2060384A0C210420FBF772FA0D
:107E60006060364A10210420FBF76CFA3449086040
:107E7000344A00213448FBF7D3F934490860344AC6
:107E800000213448FBF7CCF933490860334A00211C
:107E90003348FBF7C5F93349086010BD38B5FBF727
:107EA000ABF904000020FFF714FF002805D10022E1
:107EB00040212D48FFF7E9FD04E0012240212A4836
:107EC000FFF7E3FDFFF7B8FFFBF792F90A214843FC
:107ED000FA218900F9F721FBFBF71AFAFBF79AF967
:107EE0002249F9F71AFB050021484543FBF784F9BD
:107EF000001BA842FAD340210C48FFF7D0FDFBF746
:107F00007BF90400F2E780B5042201210848FBF761
:107F1000C7FC00F04DFB00F0A7FB01BD80B5044895
:107F200000F0F6FB00F0F8FB01BD00000008005077
:107F3000AC8500206C9C0008849C00089C9C000878
:107F40002C860020609A00089D7E00082086002074
:107F5000849A0008077F000824860020A89A000859
:107F60001D7F0008288600200004005040420F00BA
:107F700020A1070000B50F490A680F4B13400343C7
:107F80000B6080218900884211D10C4800680621CD
:107F900048430B49F9F7C1FA401C00E0401E09496B
:107FA0000968490503D50028F8D1032000E0002026
:107FB00000BD000000700040FFF9FFFFAC0300208F
:107FC00040420F0014700040FEB5040000273D0041
:107FD0003800694608702068800365D58020400518
:107FE000574909680140002908D155490A680243E8
:107FF0000A6009680840019001980127514E3068D5
:108000008021490001433160FBF770F8019030682E
:10801000C00506D4FBF76AF80199401A0328F6D385
:1080200003252800C0B2002834D1474E3168C02053
:108030008000084000280FD0A16988420CD0316828
:10804000424808403168802252020A433260316857
:108050003F4A0A4032603060C0070DD5FBF746F852
:1080600001903068800707D4FBF740F80199401A67
:1080700038498842F5D303252800C0B2002806D12C
:10808000306832490140A0690843306004E0684626
:10809000057001E068460570FFB2012F04D1284841
:1080A00001682D4A0A4002602078C00706D52B4897
:1080B00001680322914362680A43026020788007C6
:1080C00006D5264801680C229143A2680A43026043
:1080D0002078400606D521480168214A0A40E16817
:1080E000114301608020C00121680140002911D0A6
:1080F0001A490A6892009208636913430B60616928
:108100008022D205914205D116490A6880235B027C
:1081100013430B60216809050FD510490A68124BFB
:10812000134022691A430A602169814205D10D4832
:108130000168802252020A43026068460078FEBD50
:108140003C100240007000405C100240FFFCFFFF4A
:10815000FFFFFEFF89130000FFFFFFEF54100240F6
:10816000FFCFFFFF0C100240FF3FFFFF00B50100F3
:1081700049B2002905D40121C006C00E81403C4807
:10818000016000BD00B5010049B2002909D40121F8
:10819000C006C00E814037480160BFF34F8FBFF368
:1081A0006F8F00BD00B5010049B2002905D401213F
:1081B000C006C00E81403048016000BDF0B502002D
:1081C00052B2002A1BD403222C4B040064B2A40830
:1081D00004256C431C59FF251600064008277E43E2
:1081E000B540AC438901C9B2024008256A439140B9
:1081F000214340B2800804225043195022E00F244A
:108200001F4A032305006DB22540083DAD08042632
:108210007543060076B23440083CA4080426744333
:108220001659FF27BC461C00044008277C436746BC
:10823000A740BE438901C9B2034008204343994087
:1082400031435151F0BD80B540B2FFF7B7FF01BDDA
:1082500080B540B2FFF78AFF01BD80B540B2FFF79D
:1082600091FF01BD80B540B2FFF79CFF01BD00004A
:1082700000E100E080E100E080E200E000E400E0F6
:108280001CED00E003480168034A12688918016088
:10829000704700BF68860020A80300207047FEE7F3
:1082A00010B50400002C01D1012014E03D20205C19
:1082B000002805D100203C216054200000F058F92E
:1082C00002203D216054211D206800F007F90120A3
:1082D0003D216054002010BD00B501210268D26824
:1082E0000A430368DA6002689368074A1A40062A5C
:1082F00008D080235B029A4204D0026812681143BE
:1083000000680160002000BD0700010070B5040096
:10831000022620680069304000281CD02068C06810
:108320003040002817D00220C04321680861012096
:108330002077206880698007800F002803D0200004
:1083400000F002FA05E0200000F0FFF9200000F044
:10835000FDF90020207704252068006928400028C6
:108360001CD02068C0682840002817D00420C043D3
:1083700021680861267720688069C0218900014052
:10838000002903D0200000F0DFF905E0200000F014
:10839000DCF9200000F0DAF90020207708262068B8
:1083A0000069304000281BD02068C0683040002899
:1083B00016D00820C0432168086125772068C0696D
:1083C0008007800F002803D0200000F0BDF905E0F1
:1083D000200000F0BAF9200000F0B8F90020207762
:1083E000102021680969014000291CD02168C96852
:1083F0000840002817D01020C04321680861267764
:108400002068C069C02189000140002903D02000F4
:1084100000F09AF905E0200000F097F9200000F044
:1084200095F9002020770120216809690140002981
:108430000BD02168C9680840002806D00120C0433D
:10844000216808612000FFF746F98025206800694F
:10845000284000280BD02068C0682840002806D09B
:108460008020C04321680861200000F070F9206876
:108470000069C0050AD52068C0680540002D05D0F8
:10848000154821680861200000F062F94020216849
:108490000969014000290BD02168C96808400028FB
:1084A00006D04020C04321680861200000F051F947
:1084B000202021680969014000290BD02168C96882
:1084C0000840002806D02020C04321680861200011
:1084D00000F040F970BD0000FFFEFFFF10B503681B
:1084E0001C4A904202D01C4CA04204D17024A343E9
:1084F0001C004B68234390420ED0174CA0420BD077
:10850000164CA04208D0164CA04205D0154CA042F3
:1085100002D0164CA04203D1134C1C40CB6823431D
:108520008024A3434C691C4304608B68C3620B68BE
:108530008362904208D00A4A904205D0094A90428C
:1085400002D00A4A904201D10969016301214161C7
:1085500010BD0000002C014000040040002000403D
:108560000040014000440140FFFCFFFF0048014083
:108570007047FEE780B501200B490A6802430A6094
:1085800009680840009000988020400507490A6863
:1085900002430A600968084000900098C020C000AB
:1085A000FFF706FB01BD00BF401002403C10024037
:1085B00010B5FDF7E0FDFDF73DFE534C200000F047
:1085C0007AFA200000F06DFB200000F007FC20008C
:1085D00000F05CFC00F0EAFC2000FDF77DFA10BD25
:1085E000F8B50400002635000021606800F0DEF8D0
:1085F0000700200000F01AFB002804D03900607842
:1086000000F02AFB0125200000F0CEFB002804D05A
:108610003900607800F0D2FB0125200000F01CFC3E
:10862000002804D03900607800F020FC01252000EB
:10863000FDF796F9002804D039006078FDF7FEF9BF
:108640000125EDB2002D08D13100241D2068FAF774
:10865000DDFF2660FAF7E7FF05E0636804223900D2
:10866000607800F042F8F1BD38B588B0FFF747FBFD
:1086700005ACFF206070244D012205A92800FBF7FE
:1086800058F960780128F3D100F017FB00F067F883
:10869000002819D0002202A92800FBF721F90028A0
:1086A00012D002AC049A92B20399607800F08AF872
:1086B000002809D10020019004980090039B627863
:1086C00001212800FBF7EFF8FDF703FE002205A9C2
:1086D0002800FBF72EF9002802D005A8FFF780FF3D
:1086E00000F000FBFDF730FAD0E71FB56C462070B4
:1086F0000191D2B2029203930022694603480068B6
:10870000FAF72EFA1FBD0000AC8500202C86002051
:1087100080B5FAF738FA01BDF8B5FAF751F8F9F76C
:10872000BFF80A22694607480068FAF720FA0028CD
:1087300004D06846FAF780FAFAF7AAFCF9F7B5F818
:10874000EFE700002C8600207047704770477047A5
:10875000704770477047FEE7C9B28162704700B545
:10876000AC480079002803D1AB48007D002801D037
:10877000012100E0002101204840C0B200BD10B539
:1087800006210022A34C2000FAF7B6FC10BD80B5EC
:10879000A0480121017141880A00521C42809F4873
:1087A00089B2415C9E48FFF7D7FF01BD00B50029A3
:1087B00006D0C27803791B061B0C1A43521E0A808E
:1087C0000B3000BDF8B50F00160035000A35914991
:1087D0000A79002A03D1904A127D002A01D0002094
:1087E00038E02A00921C0A808C4C00940099B64A0A
:1087F0000A70120A4A700099887000983100C1709E
:10880000090A01710020009948710098811D00201B
:10881000FCF796F8300080B200280AD03900002911
:1088200007D0B6B23200009806000A363000F8F7DA
:1088300003FD290089B2009800F0CEFB01002A0058
:1088400092B2A15480B2000AADB261194870FFF72C
:108850009EFF0120F2BD80B56E494A880B889A427E
:1088600003D1FFF78CFF002007E06C4A4B88D25CF5
:1088700002704888401C4880012002BD10B51821B4
:108880000022654C2000FAF737FCFAF7CBFE0021F6
:1088900080200001FAF7AAFE8C49086010BD10B5CF
:1088A000020008001100C9B2162910D15A49874B9D
:1088B0001B680C891A550A89521C0A81C0B200280B
:1088C00001D1012004E001200875022000E0C0B2BF
:1088D00010BD51497D4A12680B89D0540A89521C37
:1088E0000A8108730320704710B54B4A774B1B6809
:1088F0001489185513895B1C13810B885B1C0B8032
:108900000B88022B03D2C0B2D08190790FE00B8884
:10891000022B0BD1D389C0B200021843D081D08979
:10892000401E908000200880042000E0002010BD40
:108930003949664A12680B89D0540A89521C0A8147
:1089400008740520704710B5334A604B1B681489C2
:1089500018551089401C10810888401C0880088820
:10896000042801D2907902E000200880062010BD82
:1089700030B51388012B05D1274B544C24681D8931
:1089800064191C60244B514C24681D89605518895A
:10899000401C18811088401C1080108889B28842C1
:1089A00001D2987907E000201080187C002801D1BE
:1089B000082000E0072030BD1748807970473EB599
:1089C000154A424B1C68158960551489641C148132
:1089D0000C88641C0C800C88022C03D2C0B250821C
:1089E000907915E000240C80518AC0B2000208433F
:1089F000508200200190108900901B68127B012199
:108A000033480068FAF778FF0028FFF737FF0020A7
:108A10003EBD000008860020DC840020B451002008
:108A20000038014010B52B4CA17900290CD0022947
:108A300016D00FD304291FD017D3062928D020D34E
:108A4000082931D02CD335E0A179C0B2FFF727FF38
:108A5000A0712FE0A179C0B2FFF721FFA07129E03A
:108A6000C0B2FFF736FFA07124E021000A31C0B286
:108A7000FFF73AFFA0711DE0C0B2FFF759FFA071E8
:108A800018E021000A31C0B2FFF75DFFA07111E0CC
:108A900022000A32E189C0B2FFF76AFFA07109E043
:108AA000FFF78AFFA07105E021000A31C0B2FFF78D
:108AB00086FFA07110BD80B505490860FFF75FFE15
:108AC000FFF7DCFE01BD00001616000054860020F2
:108AD00050860020DC8400203EB5894D2800FAF73E
:108AE00054FF04002000C0B2002810D085484188FF
:108AF000491C4180E88808300021019180B2009033
:108B00002B002222012180480068FAF7CCFE2000C9
:108B1000C0B23EBD7B4800214170007870471CB553
:108B2000002078494870794C200079492822F8F7CC
:108B300083FB0020019028200090230018220121AF
:108B400071480068FAF7AFFE012016BD80B500201D
:108B50006C4948706F480078012801D1022009E073
:108B6000FFF7BAFFC0B2002801D0052002E0FCF7F1
:108B7000D3FF002002BDE0B5FAF755FF00210191B7
:108B8000002100910300B22201215F480068FAF73A
:108B90008AFE03200EBD1CB500200100594A517009
:108BA0005D4C2071FAF71EFF6080FAF70DFF208000
:108BB00000200190052000902300B022012152489E
:108BC0000068FAF770FE042016BD80B500204D49FC
:108BD0004870FCF7A1FF002002BD80B5FFF77CFFC5
:108BE000484900224A70C0B2002802D048880028B4
:108BF00003D1FCF791FF002000E0087802BD0120BE
:108C000040494870704702203E4948707047032031
:108C10003C494870704704203A49487070473948C9
:108C20004188491E418005214170704700B5407858
:108C300001280DD019280BD0232809D0252807D0CA
:108C4000B12805D0B32803D0D12801D0D42801D130
:108C5000012000E0002000BD80B5C0B201280AD08C
:108C600019280DD0232817D0252805D0B1280FD0DA
:108C7000B32809D014E013E00800FFF7C0FF0FE0AD
:108C80000800FFF7C0FF0BE00800FFF7C0FF07E098
:108C90000800FFF7C0FF03E00800FFF7C0FFFFE791
:108CA00001BD10B51849086004210022154C2000B0
:108CB000FAF722FAFAF7A4FE10BD1CB5174C0523EB
:108CC0001448027800212000FAF785FD0020019069
:108CD000032000902300242201210B480068FAF7AA
:108CE000E2FD13BD10B5074C0D4821781822514301
:108CF000401861780422514340588047207010BDCD
:108D0000647D0020408600203C860020988400205E
:108D1000489900088CA00008E085002044860020C7
:108D20008402002010B54A798B791B061B0C1A436C
:108D3000437984792406240C234392B29BB29A424D
:108D400002D20020C04310E0427983791B061B0C3D
:108D50001A4348798B791B061B0C184392B280B2D8
:108D6000824201D2012000E0002010BD3EB51D4C22
:108D7000421C01782000FAF718FD05002078002831
:108D800010D0194B08222178601CFDF787F90020CC
:108D90000190ADB200952300C22201211348006862
:108DA000FAF781FD37BD704700B54078C12801D082
:108DB000C32801D1012000E0002000BD80B5C0B271
:108DC000C12802D0C32804D007E00800FFF7CEFF77
:108DD00003E00800FFF7E7FFFFE701BD0349086074
:108DE0007047000060790020258D00084C86002027
:108DF00010B586B0040002A826491022F8F702FA3E
:108E0000200000F071F8002810D1200000F086F852
:108E1000002806D100F09DF802AA210080B200F0DF
:108E20009FF8200000F07AF8002812D01A4C03882E
:108E300002000A32811C2000FAF7A2FC00210191F5
:108E400080B200902300C522012114480068FAF77F
:108E50002AFD06B010BD704700B54078C42801D087
:108E6000C62801D1012000E0002000BD80B5C0B2BD
:108E7000C42802D0C62804D007E00800FFF7B8FFD6
:108E800003E00800FFF7E7FFFFE701BD03490860C3
:108E900070470000A09E0008C08400203486002097
:108EA00030B50723002201E05B1E521C1400A4B25F
:108EB000082C17DA1C00A4B20419A4781D00ADB266
:108EC0004D19AD78AC42EFD01A0092B2891889786A
:108ED0009BB2C0188078814201D2012003E00020BB
:108EE000C04300E0002030BD38B588B004001A212E
:108EF000002201AD2800FAF7FFF8082201A8851C1E
:108F000021002800F8F798F92F4800901A23022230
:108F10002E4901A8FDF754F909B030BD38B588B025
:108F200004001A21002201AD2800FAF7E5F8082212
:108F300001A8851C21002800F8F77EF9224800903E
:108F40001A2323484288234901A8FDF739F909B0BB
:108F500030BD1F4908880200521C0A8080B2704749
:108F6000FEB51B4C6388642B01D300201DE00192E9
:108F7000184D62881A235343EE186288521C62808F
:108F800030800822B71C3800F8F756F910220198F3
:108F900000900A3600993000F8F74EF90A4B1A2271
:108FA00061882800FDF77AF80120FEBD80B50848E9
:108FB0000321018000214180034B1A220221034832
:108FC000FDF76CF801BD0000A18E000850020020E2
:108FD00038860020C047002030B5020000200DE098
:108FE000094B0400A4B22412E4B2157865400224AF
:108FF00065435B5B00025840491E521C0B009BB24C
:10900000002BEDD180B230BD0C9000080000211083
:10901000422063308440A550C660E77008812991E2
:109020004AA16BB18CC1ADD1CEE1EFF1311210028A
:1090300073325222B5529442F772D6623993188332
:109040007BB35AA3BDD39CC3FFF3DEE36224433456
:1090500020040114E664C774A44485546AA54BB582
:1090600028850995EEE5CFF5ACC58DD5533672262A
:1090700011163006D776F6669556B4465BB77AA7D2
:1090800019973887DFF7FEE79DD7BCC7C448E55876
:109090008668A7784008611802282338CCC9EDD922
:1090A0008EE9AFF9488969990AA92BB9F55AD44ACA
:1090B000B77A966A711A500A333A122AFDDBDCCB72
:1090C000BFFB9EEB799B588B3BBB1AABA66C877C96
:1090D000E44CC55C222C033C600C411CAEED8FFDC2
:1090E000ECCDCDDD2AAD0BBD688D499D977EB66E6A
:1090F000D55EF44E133E322E511E700E9FFFBEEF12
:10910000DDDFFCCF1BBF3AAF599F788F8891A981D3
:10911000CAB1EBA10CD12DC14EF16FE18010A100BD
:10912000C230E3200450254046706760B9839893AD
:10913000FBA3DAB33DC31CD37FE35EF3B10290120D
:10914000F322D2323542145277625672EAB5CBA579
:10915000A89589856EF54FE52CD50DC5E234C3245D
:10916000A01481046674476424540544DBA7FAB74D
:109170009987B8975FE77EF71DC73CD7D326F236AD
:109180009106B01657667676154634564CD96DC999
:109190000EF92FE9C899E9898AB9ABA944586548FD
:1091A00006782768C018E1088238A3287DCB5CDBED
:1091B0003FEB1EFBF98BD89BBBAB9ABB754A545A4D
:1091C000376A167AF10AD01AB32A923A2EFD0FEDB9
:1091D0006CDD4DCDAABD8BADE89DC98D267C076C9D
:1091E000645C454CA23C832CE01CC10C1FEF3EFF8D
:1091F0005DCF7CDF9BAFBABFD98FF89F176E367EED
:10920000554E745E932EB23ED10EF01E406AC0B22F
:109210007047C9B281627047704700B5FEE780B5FC
:109220003848FFF773F801BD38B5374C2068C0697E
:10923000800605D53548FFF7E9FFC0B2FFF7F2FB1E
:1092400040252068C069284000280CD06846FFF7F8
:1092500002FB002802D12068056204E0684601781C
:109260002A48FFF7D6FF31BD80B5F9F7CDFA01BD29
:1092700000B5082026490A680240002A07D1254A7D
:1092800012680240D3081A00D207D20F00E0012270
:10929000D2B2002A10D008601E4908601E49096831
:1092A0000840002804D0802080001C49086003E0AA
:1092B000802080041949086000BD00B58020C000EE
:1092C00013490A680240002A07D1124A1268024074
:1092D000930A1A00D207D20F00E00122D2B2002A6C
:1092E0000FD008600B4908600B4909680840002846
:1092F00003D004200949086003E08020C002074928
:10930000086000BDE88300209880002000380140FC
:109310000C180240101802401000005018000050B5
:10932000686A6C747A4C00007072696E74665F7360
:109330003A20256E20646973616C6C6F77656400F8
:109340007072696E74663A2062616420256E2061D5
:109350007267756D656E74007072696E74665F73A6
:109360003A2062616420257320617267756D656EB5
:1093700074000000000000006E616E004E414E005F
:10938000696E6600494E46003000FEE7202020202E
:109390005479706520286F722073656E6420766939
:1093A000612066696C652920746865207374726930
:1093B0006E6720746F2073656E64206F766572200F
:1093C000554450206C696E6B20286D61782073695C
:1093D0007A65203D202564292C207468656E20451F
:1093E0004E5445520A0D0000202020546F2065780D
:1093F0006563757465207365766572616C2027629C
:109400006173696327205544502044617461205280
:10941000455120746573747320696E2061207261F8
:1094200077202C2070726573732031207468656E0C
:1094300020454E5445520A0D0000000020202020F7
:109440004966206E6F7420616C7265616479206476
:109450006F6E652C206C61756E636820636F72722D
:109460006573706F6E64696E672074657374206FC6
:109470006E20746865204F5448455220424F415237
:1094800044206E6F77212E2E2E0A0D00B49C00080A
:1094900001000000C89D000801000000CC9C0008ED
:1094A00001000000B09E000800000000DC9D0008E4
:1094B00000000000C09E000801000000D09E0008CF
:1094C00001000000E49C000801000000F09D00087D
:1094D00001000000049E000800000000506C61794B
:1094E0002074657374206F6E6365206D6F726520E4
:1094F0006F72207072657373204553432E206B6525
:1095000079207468656E20454E54455220746F2052
:10951000676F206261636B20746F206D61696E20DC
:109520006D656E750A0D000020202020546573744F
:109530002069732066696E697368656421202564FB
:1095400020554450207472616E7366657273206892
:10955000617665206265656E206C61756E63686515
:1095600064207769746820796F7572206461746112
:109570002E0A0D0020202020496620626F6172644F
:1095800020656E737572657320746865205544504C
:109590002044617461526571206D6972726F7269E5
:1095A0006E672C2070726573732031207468656E4D
:1095B00020454E5445520A0D00000000202028503E
:1095C00072657373204553432E206B657920746850
:1095D000656E20454E54455220617420616E79209D
:1095E00074696D6520746F20676F206261636B2002
:1095F000746F2074686973206D656E75290A0D009B
:10960000202020546F20657865637574652027627B
:10961000617369632720554450204461746120526E
:1096200045512074657374206F6E63652C207072D1
:109630006573732030207468656E20454E54455222
:109640000A0D0000202020546F2065786563757432
:109650006520276C6F6F706261636B2720554450E3
:1096600020446174612052455120746573742C202C
:1096700070726573732032207468656E20454E5495
:1096800045520A0D0000000000000000000000002C
:1096900000000000000000000000000000000000CA
:1096A00000000000000000000100000002000000B7
:1096B0000300000004000000060000000700000096
:1096C00008000000090000002020202049662062D8
:1096D0006F61726420697320554450204461746145
:1096E000526571206F726967696E61746F722C20A8
:1096F00070726573732030207468656E20454E5417
:1097000045520A0D00000000202020456E7465724D
:1097100020746865206E62206F66207465737473B0
:1097200020746F206C61756E6368202862747720E6
:109730003120616E6420393929207468656E2045B6
:109740004E5445520A0D0000202020204966206218
:109750006F617264206973205544502044617461C4
:1097600052657120726563697069656E742C207032
:10977000726573732031207468656E20454E5445C0
:10978000520A0D0020202020205465737420697334
:109790002066696E697368656420212047335544EB
:1097A000502D444154412E496E64207265636569B1
:1097B0007665642025642074696D65730A0D000068
:1097C00070B40123002413E00168001D194202D087
:1097D0004D466D1E49190C60091D121F042AFAD24C
:1097E0000D00960701D50C80AD1C1A4000D02C70DE
:1097F0000268001D002AE7D170BC70472020546F1A
:109800002073656C65637420626F61726420636F9E
:109810006E666967204161612C20707265737320E8
:1098200030207468656E20454E5445520A0D000084
:109830002020546F2073656C65637420626F6172C1
:109840006420636F6E666967204262622C207072CA
:109850006573732031207468656E20454E544552FF
:109860000A0D000068695F697076365F6563686F2E
:109870005F726571756573743A20646174615F6CC1
:10988000656E2076616C756520746F6F20686967FE
:109890006800000068695F697076365F7564705FA4
:1098A000646174615F7265713A20646174615F6CB8
:1098B000656E2076616C756520746F6F20686967CE
:1098C000680000002020546F2073656C656374206D
:1098D0005544502074657374732C207072657373D3
:1098E0002030207468656E20454E5445520A0D00A4
:1098F0003E3E3E20426173696320554450204461DE
:10990000746152657120746573747320696E20618F
:10991000207261773A203C3C3C0A0D002020202038
:109920004C6173742047335544502D444154412EAB
:10993000496E64206D736720636F6E74656E74206A
:1099400069733A2000000000C0CA89360050C30085
:1099500000D4300000A08601000180F0FA020E2D34
:10996000A00001010300FFFFFFFF00010001020052
:109970003E2045564C4B53543835303047482053E1
:10998000544D33322055736572205465726D696E83
:10999000616C203C0A0D000057616974696E672094
:1099A000666F7220506C6174666F726D20496E66CE
:1099B0006F206D6573736167652E2E2E0A0D000092
:1099C0003E3E3E204C6F6F706261636B2055445089
:1099D000204461746152657120746573743A203C4F
:1099E0003C3C0A0D00000000256420636861726140
:1099F0006374657273206C6F6F706261636B656412
:109A000020696E202564206D73200A0D000000007F
:109A10000A0D5465726D696E616C2052582066693A
:109A2000666F206F766572666C6F7720646574650B
:109A300063746564210A0D0010B507497944183133
:109A4000064C7C44163404E0081D0A6889188847CF
:109A50000100A142F8D110BD28010000440100001E
:109A6000909E0008000000000000000000000000C0
:109A700000000000000200001800000000000000CC
:109A800000000000FC9F0008000000000000000033
:109A900000000000000000000004000018000000AA
:109AA0000000000000000000909F0008000000007F
:109AB00000000000000000000000000000040000A2
:109AC000180000000000000000000000496E7661F0
:109AD0006C696420656E7472792120506C656173C5
:109AE000652072657472792E2E2E0A0D000000001A
:109AF0003E2045564C4B5354383530304748206251
:109B00006F61726420636F6E6669673A203C0A0D6C
:109B1000000000003E2045564C4B53543835303041
:109B20004748206D61696E2074657374206D656EA1
:109B3000753A203C0A0D00003E3E3E2042617369AA
:109B400063205544502044617461526571207465EE
:109B500073743A203C3C3C0A0D0000002020202079
:109B600047335544502D444154412E496E64206D75
:109B7000736720636F6E74656E742069733A20009A
:109B800041FCFFFF80820000500400200000000024
:109B90007F75FFFFFA040000700100000000002044
:109BA00000000000000000000000000000000000B5
:109BB000010000000200000003000000040000009B
:109BC000202020204C6F6F706261636B2764206DD2
:109BD000736720636F6E74656E742069733A20003A
:109BE00000F00DF8002801D0FFF726FF00BF00BFEE
:109BF000002000BF00BFFDF7A3FC00F002F8012029
:109C0000704780B500F002F801BDFEE70746384610
:109C1000F7F73CFEFBE7FEE757616974696E672062
:109C2000666F72202573206D6573736167652E2ED4
:109C30002E0A0D002053544D3332204657207665AE
:109C40007273696F6E3A202564256425640A0D00DD
:109C50000548014603B4684680F3098800BF00BF89
:109C600000BF00BFFFF7BCFFA5EDF5FE8C9D00080F
:109C700000000000000000000000000000000000E4
:109C800000000000A09D000800000000000000008F
:109C9000000000000000000000000000B49D00086B
:109CA00000000000000000000000000000000000B4
:109CB000000000004733424F4F542D4445562D506D
:109CC000414E534F52542E496E6400004733424F69
:109CD0004F542D4445562D53544152542E436E66D5
:109CE000000000004733424F4F542D4445562D4C41
:109CF000454156452E436E66000000003E3E20550D
:109D000044502074657374206D656E753A203C3C38
:109D10000A0D00002020202054797065642073749F
:109D200072696E672069733A200000005B252E314E
:109D3000643A252E32643A252E32643A252E326456
:109D40005D200000205045204657207665727369DB
:109D50006F6E3A2025580A0D000000002047334C52
:109D600069622046572076657273696F6E3A2025C6
:109D7000580A0D0020473352544520465720766537
:109D80007273696F6E3A2025580A0D0073656E6410
:109D90005F6F705F626567696E5F7175657565009D
:109DA000726563765F6F705F626567696E5F71751C
:109DB0006575650067335F746F5F757365725F719A
:109DC00075657565000000004733424F4F542D53B1
:109DD00052562D4A4F494E2E496E64004733554422
:109DE000502D434F4E4E2D5345542E436E6600006A
:109DF0004733424F4F542D5352562D53544F502EEC
:109E0000436E6600484F535449462D444247544FD1
:109E10004F4C2E436E6600005B524620545950450D
:109E20003A203931354D487A5D0A0D0054696D6527
:109E30006F75742072656163686564210A0D0000A6
:109E4000506C6174666F726D20696E666F3A0A0DB0
:109E5000000000004643432061626F766520434561
:109E60004E454C4543000000205573617274206ECE
:109E7000756D3A2025580A0D000000002053686FC8
:109E80007274416464723A2025580A0D0000000083
:109E900064656661756C745F7461736B00000000CB
:109EA000000102030405060708090A0B0C0D0E0F3A
:109EB000473349434D502D4543484F2E496E64006A
:109EC00047335544502D444154412E436E660000A3
:109ED00047335544502D444154412E496E6400008F
:109EE0002573207265636569766564210A0D00003B
:109EF0002044657669636520547970653A200000D6
:109F0000204D414320616464722E3A2025580000A0
:109F10002073466C61736849443A2025580A0D0045
:109F2000204C454420436F6E663A2025580A0D00A8
:109F30005354434F4D45542F5354434F4D0000004D
:109F400020524620636F6E6E2E3A2025580A0D006F
:109F500020506C61742E204D6F64653A2000000023
:109F60002050616E49643A2025580A0D0000000017
:109F70000148804701480047819F0008519C000824
:109F800080200005014908607047000008ED00E0EE
:109F9000757365725F7461736B0000005B434F4FB4
:109FA00052442E5D0A0D00002042616E64706C61A7
:109FB0006E3A200043454E454C4543204100000089
:109FC00043454E454C4543204200000020506C6103
:109FD00074666F726D3A2000556E737065636966C2
:109FE0006965640041445020424F4F540000000016
:109FF0004950563620424F4F5400000067335F747B
:10A0000061736B000001020304000000FE80000089
:10A0100000000000000000FFFE000000010101033D
:10A0200007010000080402040801010149444C45ED
:10A0300000000000546D722053766300546D72511D
:10A04000000000000A0B0C0D0E0F1000434F4F5282
:10A05000442E0000444556494345000041524942C0
:10A060000000000025580A0D00000000496E7661CE
:10A070006C6964005354383530300000204D4F4433
:10A08000450A0D00080000000A0D000001012350E0
:10A090000001F003FF0200578C0001B10156532864
:10A0A000F1FF01E101501901000080E1FFFE4CA623
:10A0B0006A000102030405060708090A0B0C0D0ECD
:10A0C0000F021AE36DC61A1003158B00081F04F265
:10A0D000061504F20A4D1C2104F2027714F20A97C5
:10A0E00030F20ACB1C12DB044004635400086D54A8
:10A0F00008F10704F20E9B20F20EAB20431D55041D
:10A10000F309055520211C12AA0137040058140533
:10A11000000024F400212E2C20012F00080843D534
:10A120002E08A104F301C92F14F10704F2121F2C09
:10A13000F30951301C12711C000ACC9A000888A047
:06A140000008DC94000899
:0400000508009C5102
:00000001FF
